S011000057494E455F54454D502E737265634B
S315080070000000032099BC0008A7A30008A9A300084C
S31508007010ABA30008ADA30008AFA30008000000005A
S31508007020000000000000000000000000B1A30008F6
S31508007030B3A3000800000000B5A30008B7A3000822
S31508007040EDBC0008EDBC0008EDBC0008BBA30008B9
S31508007050EDBC0008EDBC0008EDBC0008EDBC00085E
S31508007060EDBC0008EDBC0008EDBC0008C1A3000893
S31508007070EDBC0008EDBC0008EDBC0008EDBC00083E
S31508007080EDBC0008EDBC0008EDBC0008EDBC00082E
S31508007090EDBC0008EDBC0008EDBC0008CDA3000857
S315080070A0EDBC0008EDBC0008EDBC0008EDBC00080E
S315080070B0EDBC0008EDBC0008EDBC0008EDBC0008FE
S315080070C0EDBC0008EDBC0008EDBC0008EDBC0008EE
S315080070D0EDBC0008EDBC0008EDBC0008EDBC0008DE
S315080070E0D3A30008EDBC0008EDBC0008EDBC000801
S315080070F0DBA30008DFA30008E3A30008EDBC000833
S31508007100EDBC0008EDBC0008EDBC0008EDBC0008AD
S31508007110EDBC0008EDBC0008EDBC0008EDBC00089D
S31508007120EDBC0008EDBC0008EDBC0008EDBC00088D
S31108007130EDBC0008EDBC0008EDBC000832
S30908007140185A0108C2
S3150800715010B5054C237833B9044B13B10448AFF383
S3150800716000800123237010BDA80200200000000043
S315080071704C50010808B5034B1BB103490348AFF34C
S31508007180008008BD00000000AC0200204C50010839
S3150800719001F0FF01102A2BDB10F0070F08D010F8BA
S315080071A0013B013A8B422DD010F0070F42B3F6D1BE
S315080071B0F0B441EA012141EA014122F007047FF0D7
S315080071C000070023F0E80256083C85EA010586EA2E
S315080071D0010685FA47F5A3FA87F586FA47F6A5FA6A
S315080071E087F68EB9EED1F0BC01F0FF0102F0070276
S315080071F032B110F8013B013A83EA010313B1F8D121
S315080072000020704701387047002D06BF3546033801
S31508007210073815F0010F07D1013015F4807F02BF3A
S31508007220013015F4C03F0130F0BC0138704700BF8B
S31508007230034613F8012B002AFBD1181A01387047A8
S3150800724081F0004102E000BF83F0004330B54FEA09
S3150800725041044FEA430594EA050F08BF90EA020F76
S315080072601FBF54EA000C55EA020C7FEA645C7FEA09
S31508007270655C00F0E2804FEA5454D4EB5555B8BF2C
S315080072806D420CDD2C4480EA020281EA030382EA9D
S31508007290000083EA010180EA020281EA0303362D2F
S315080072A088BF30BD11F0004F4FEA01314FF4801C02
S315080072B04CEA113102D0404261EB410113F0004F14
S315080072C04FEA03334CEA133302D0524263EB4303CB
S315080072D094EA050F00F0A780A4F10104D5F1200E69
S315080072E00DDB02FA0EFC22FA05F2801841F10001C4
S315080072F003FA0EF2801843FA05F359410EE0A5F198
S3150800730020050EF1200E012A03FA0EFC28BF4CF0C8
S31508007310020C43FA05F3C01851EBE37101F000457E
S3150800732007D54FF0000EDCF1000C7EEB00006EEB8B
S315080073300101B1F5801F1BD3B1F5001F0CD3490815
S315080073405FEA30004FEA3C0C04F101044FEA44526C
S3150800735012F5800F80F09A80BCF1004F08BF5FEAF3
S31508007360500C50F1000041EB045141EA050130BDD3
S315080073705FEA4C0C404141EB0101013C28BFB1F5E5
S31508007380801FE9D291F0000F04BF01460020B1FA30
S3150800739081F308BF2033A3F10B03B3F120020CDA03
S315080073A00C3208DD02F1140CC2F10C0201FA0CF0E1
S315080073B021FA02F10CE002F11402D8BFC2F1200C46
S315080073C001FA02F120FA0CFCDCBF41EA0C019040FC
S315080073D0E41AA2BF01EB0451294330BD6FEA040445
S315080073E01F3C1CDA0C340EDC04F11404C4F1200230
S315080073F020FA04F001FA02F340EA030021FA04F342
S3150800740045EA030130BDC4F10C04C4F1200220FA98
S3150800741002F001FA04F340EA0300294630BD21FAD6
S3150800742004F0294630BD94F0000F83F4801306BF9C
S3150800743081F480110134013D4EE77FEA645C18BF90
S315080074407FEA655C29D094EA050F08BF90EA020F27
S3150800745005D054EA000C04BF1946104630BD91EA1F
S31508007460030F1EBF0021002030BD5FEA545C05D122
S315080074704000494128BF41F0004130BD14F5800461
S315080074803CBF01F5801130BD01F0004545F0FE41D5
S3150800749041F470014FF0000030BD7FEA645C1ABF0A
S315080074A0194610467FEA655C1CBF0B46024650EA41
S315080074B0013406BF52EA033591EA030F41F400216D
S315080074C030BD00BF90F0000F04BF0021704730B5F3
S315080074D04FF4806404F132044FF000054FF00001C8
S315080074E050E700BF90F0000F04BF0021704730B589
S315080074F04FF4806404F1320410F0004548BF40425E
S315080075004FF000013EE700BF42004FEAE2014FEAB2
S3150800751031014FEA02701FBF12F07F4393F07F4F8D
S3150800752081F06051704732F07F4208BF704793F090
S315080075307F4F04BF41F40021704730B54FF46074A3
S3150800754001F0004521F000411CE700BF50EA0102A6
S3150800755008BF704730B54FF000050AE050EA01024F
S3150800756008BF704730B511F0004502D5404261EBBF
S3150800757041014FF4806404F132045FEA915C3FF400
S31508007580D8AE4FF003025FEADC0C18BF03325FEA9D
S31508007590DC0C18BF033202EBDC02C2F1200300FA4E
S315080075A003FC20FA02F001FA03FE40EA0E0021FA73
S315080075B002F11444BDE600BF70B54FF0FF0C4CF461
S315080075C0E06C1CEA11541DBF1CEA135594EA0C0F13
S315080075D095EA0C0F00F0DEF82C4481EA030621EA4E
S315080075E04C5123EA4C5350EA013518BF52EA033589
S315080075F041F4801143F4801338D0A0FB02CE4FF03B
S315080076000005E1FB02E506F00042E0FB03E54FF06A
S315080076100006E1FB03569CF0000F18BF4EF0010E62
S31508007620A4F1FF04B6F5007F64F5407404D25FEA5E
S315080076304E0E6D4146EB060642EAC62141EA555111
S315080076404FEAC52040EA5E504FEACE2EB4F1FD0C53
S3150800765088BFBCF5E06F1ED8BEF1004F08BF5FEAD1
S31508007660500E50F1000041EB045170BD06F0004683
S3150800767046EA010140EA020081EA0301B4EB5C0430
S31508007680C2BFD4EB0C0541EA045170BD41F4801128
S315080076904FF0000E013C00F3AB8014F1360FDEBF4D
S315080076A0002001F0004170BDC4F10004203C35DA29
S315080076B00C341BDC04F11404C4F1200500FA05F3AC
S315080076C020FA04F001FA05F240EA020001F000424D
S315080076D021F0004110EBD37021FA04F642EB0601C3
S315080076E05EEA430E08BF20EAD37070BDC4F10C04ED
S315080076F0C4F1200500FA04F320FA05F001FA04F2B1
S3150800770040EA020001F0004110EBD37041F100019C
S315080077105EEA430E08BF20EAD37070BDC4F12005A7
S3150800772000FA05F24EEA020E20FA04F301FA05F20F
S3150800773043EA020321FA04F001F0004121FA04F2B7
S3150800774020EA020000EBD3705EEA430E08BF20EA87
S31508007750D37070BD94F0000F0FD101F000464000C1
S3150800776041EB010111F4801F08BF013CF7D041EA43
S31508007770060195F0000F18BF704703F00046520047
S3150800778043EB030313F4801F08BF013DF7D043EA18
S315080077900603704794EA0C0F0CEA135518BF95EACE
S315080077A00C0F0CD050EA410618BF52EA4306D1D155
S315080077B081EA030101F000414FF0000070BD50EA74
S315080077C0410606BF1046194652EA430619D094EAFE
S315080077D00C0F02D150EA013613D195EA0C0F05D1E8
S315080077E052EA03361CBF104619460AD181EA03013C
S315080077F001F0004141F0FE4141F470014FF00000F4
S3150800780070BD41F0FE4141F4780170BD70B54FF08E
S31508007810FF0C4CF4E06C1CEA11541DBF1CEA13550E
S3150800782094EA0C0F95EA0C0F00F0A7F8A4EB0504F0
S3150800783081EA030E52EA03354FEA013100F08880E7
S315080078404FEA03334FF0805545EA131343EA1263B0
S315080078504FEA022245EA111545EA10654FEA002665
S315080078600EF000419D4208BF964244F1FD0404F51E
S31508007870407402D25B084FEA3202B61A65EB03057A
S315080078805B084FEA32024FF480104FF4002CB6EB37
S31508007890020E75EB030E22BFB61A754640EA0C00B7
S315080078A05B084FEA3202B6EB020E75EB030E22BFF7
S315080078B0B61A754640EA5C005B084FEA3202B6EB38
S315080078C0020E75EB030E22BFB61A754640EA9C00F7
S315080078D05B084FEA3202B6EB020E75EB030E22BFC7
S315080078E0B61A754640EADC0055EA060E18D04FEA85
S315080078F0051545EA16754FEA06164FEAC30343EA25
S3150800790052734FEAC2025FEA1C1CC0D111F4801FF1
S315080079100BD141EA00014FF000004FF0004CB6E7EA
S3150800792011F4801F04BF01430020B4F1FD0C88BF89
S31508007930BCF5E06F3FF6AFAEB5EB030C04BFB6EB94
S31508007940020C5FEA500C50F1000041EB045170BD87
S315080079500EF0004E4EEA113114EB5C04C2BFD4EBB4
S315080079600C0541EA045170BD41F480114FF0000E38
S31508007970013C90E645EA060E8DE60CEA135594EAB4
S315080079800C0F08BF95EA0C0F3FF43BAF94EA0C0FB7
S315080079900AD150EA01347FF434AF95EA0C0F7FF42C
S315080079A025AF104619462CE795EA0C0F06D152EA80
S315080079B003353FF4FDAE1046194622E750EA410664
S315080079C018BF52EA43067FF4C5AE50EA41047FF475
S315080079D00DAF52EA43057FF4EBAE12E74FF0FF3CDA
S315080079E006E000BF4FF0010C02E000BF4FF0010CAB
S315080079F04DF804CD4FEA410C7FEA6C5C4FEA430C24
S31508007A0018BF7FEA6C5C1BD001B050EA410C0CBF72
S31508007A1052EA430C91EA030F02BF90EA020F0020D4
S31508007A20704710F1000F91EA030F58BF994208BF3B
S31508007A3090422CBFD8176FEAE37040F001007047F8
S31508007A404FEA410C7FEA6C5C02D150EA013C07D14F
S31508007A504FEA430C7FEA6C5CD6D152EA033CD3D09A
S31508007A605DF8040B704700BF8446104662468C4694
S31508007A701946634600E000BF01B5FFF7B7FF0028C7
S31508007A8048BF10F1000F01BD4DF808EDFFF7F4FFF0
S31508007A900CBF012000205DF808FB00BF4DF808ED7B
S31508007AA0FFF7EAFF34BF012000205DF808FB00BF9E
S31508007AB04DF808EDFFF7E0FF94BF012000205DF8C0
S31508007AC008FB00BF4DF808EDFFF7CEFF94BF012075
S31508007AD000205DF808FB00BF4DF808EDFFF7C4FF6E
S31508007AE034BF012000205DF808FB00BF4FEA410CB7
S31508007AF07FEA6C5C02D150EA013C0AD14FEA430C9A
S31508007B007FEA6C5C02D152EA033C02D14FF00000D6
S31508007B1070474FF0010070474FEA410212F5001214
S31508007B2015D211D56FF47873B3EB625212D94FEAB6
S31508007B30C12343F0004343EA505311F0004F23FAA0
S31508007B4002F018BF404270474FF00000704750EAF5
S31508007B50013005D111F0004008BF6FF000407047B2
S31508007B604FF00000704700BF4A0011D212F500120C
S31508007B7011D20DD56FF47873B3EB62520ED44FEA77
S31508007B80C12343F0004343EA505323FA02F07047F7
S31508007B904FF00000704750EA013002D14FF0FF3035
S31508007BA070474FF0000070474FEA4102B2F1E043D8
S31508007BB024BFB3F5001CDCF1FE5C0DD901F0004CC6
S31508007BC04FEAC0024CEA5070B2F1004F40EB830016
S31508007BD008BF20F00100704711F0804F21D113F142
S31508007BE03872BCBF01F00040704741F480114FEA7B
S31508007BF05252C2F11802C2F1200C10FA0CF320FA04
S31508007C0002F018BF40F001004FEAC1234FEAD32320
S31508007C1003FA0CFC40EA0C0023FA02F34FEA43038A
S31508007C20CCE77FEA625307D150EA01331EBF4FF013
S31508007C30FE4040F44000704701F0004040F0FE402E
S31508007C4040F40000704700BF53B94AB9002908BF7D
S31508007C5000281CBF4FF0FF314FF0FF3000F0A6B9E7
S31508007C60ADF1080C6DE904CE00F03CF8DDF804E04F
S31508007C70DDE9022304B0704738B500220023044624
S31508007C800D46FFF70BFF28B920462946BDE83840C0
S31508007C9000F00AB8204605F1004100F005F8404218
S31508007CA061EB410138BD00BFD0B50C4B002206463A
S31508007CB00F46FFF781FCFFF757FF0446FFF702FC64
S31508007CC0074B0022FFF778FC02460B46304639463A
S31508007CD0FFF7BAFAFFF748FF2146D0BD0000F03D8E
S31508007CE00000F0412DE9F047089E0D4604460F4670
S31508007CF0002B4AD18A42944665D9B2FA82F343B137
S31508007D0002FA03FCC3F120029F4020FA02F217434D
S31508007D109C404FEA1C4E1FFA8CF5B7FBFEF1220C6D
S31508007D200EFB117742EA074201FB05F090420AD999
S31508007D301CEB020201F1FF3780F01C81904240F2F1
S31508007D40198102396244121AA4B2B2FBFEF00EFB84
S31508007D50102244EA024400FB05F5A5420AD91CEBA9
S31508007D60040400F1FF3280F00781A54240F2048145
S31508007D706444023840EA0140641B00211EB1DC401D
S31508007D800023C6E90043BDE8F0878B4208D9002ED8
S31508007D9000F0ED800021C6E900050846BDE8F08739
S31508007DA0B3FA83F1002949D1AB4202D3824200F2E9
S31508007DB0F880841A65EB030201201746002EE2D0EC
S31508007DC0C6E90047DFE702B9FFDEB2FA82F3002B05
S31508007DD040F090808A1A4FEA1C471FFA8CFE012150
S31508007DE0B2FBF7F507FB1520220C42EA00420EFB10
S31508007DF005F0904208D91CEB020205F1FF3802D2C1
S31508007E00904200F2CB804546121AA4B2B2FBF7F0B4
S31508007E1007FB102244EA02440EFB00FEA64508D9D9
S31508007E201CEB040400F1FF3202D2A64500F2BB8027
S31508007E301046A4EB0E0440EA05409FE7C1F120076F
S31508007E408B4022FA07FC4CEA030C05FA01F420FAE7
S31508007E5007F3FD404FEA1C492343B5FBF9F81FFA1F
S31508007E608CFE09FB18551C0C44EA054408FB0EF564
S31508007E70A54202FA01F200FA01F00BD91CEB040440
S31508007E8008F1FF3A80F08880A54240F28580A8F183
S31508007E9002086444641B9DB2B4FBF9F309FB13445E
S31508007EA045EA044403FB0EFEA64508D91CEB040468
S31508007EB003F1FF356CD2A6456AD9023B644443EA0E
S31508007EC00843A3FB0295A4EB0E04AC42C846AE4693
S31508007ED056D353D056B1B0EB080264EB0E0404FA3D
S31508007EE007F7CA40CC401743C6E900741846002174
S31508007EF0BDE8F087C3F1200102FA03FC20FA01F27B
S31508007F0025FA01F19D402A434FEA1C471FFA8CFEC9
S31508007F10B1FBF7F007FB1015110C41EA054100FB10
S31508007F200EF58D4204FA03F408D91CEB010100F1A1
S31508007F30FF382FD28D422DD902386144491B92B29F
S31508007F40B1FBF7F507FB151142EA014205FB0EF1F5
S31508007F50914208D91CEB020205F1FF3816D291426C
S31508007F6014D9023D6244521A45EA004138E73146BF
S31508007F70304608E73946E6E61046FBE64845A9D204
S31508007F80B9EB020865EB0C0E013BA3E74546EAE7A9
S31508007F902B4694E74046D1E7D0467BE7023D62444C
S31508007FA032E708460AE76444023842E7704700BFEA
S31508007FB02DE9F041404D86B001244FF0FF3705AE5C
S31508007FC04FF000082346CDE9014700961F223021CD
S31508007FD028468DF8148005F0ADF877238DF814300F
S31508007FE0CDE901472346009620223021284605F090
S31508007FF0A1F82346CDE901470096212230212846DB
S315080080008DF8148005F096F818238DF81430CDE90C
S3150800801001472346009622223021284605F08AF891
S315080080202346CDE9014700962322302128468DF8BC
S31508008030148005F07FF80A238DF81430CDE901473E
S315080080402346009624223021284605F073F820237B
S315080080508DF81430CDE901472346009625223021B4
S31508008060284605F067F82346CDE9014700962622FB
S31508008070302128468DF8148005F05CF82346CDE9B2
S31508008080014700962E223021284605F053F8302263
S3150800809023461146CDE901470096284605F04AF8D9
S315080080A0CDE901470096234634223021284605F0BB
S315080080B041F806B0BDE8F081680400202DE9F041DA
S315080080C086B001254FF0FF3805AF4D4E00972B4679
S315080080D0CDE90158282230214A484B4C05F004F9CD
S315080080E09DF814303370CDE901582B4600972922A4
S315080080F03021444805F0F8F89DF814307370338839
S31508008100E380CDE901582B4600972A2230213D48C5
S3150800811005F0EAF89DF814303370CDE901582B467E
S3150800812000972B223021374805F0DEF89DF81430E9
S31508008130737033882381CDE901582B4600972C228A
S315080081403021304805F0D0F89DF814303370CDE969
S3150800815001582B4600972D2230212A4805F0C4F8ED
S31508008160B4F906209DF814307370002AB8BF3F3260
S31508008170921107EE102AB4F90820B6F90030638187
S31508008180002AB8BF3F329211002BDFED205A9FED2F
S31508008190206A2048B8BF3F3306EE902AB8EEC77A61
S315080081A09B1127EE257A07EE903AF8EEE66A27EE57
S315080081B0067A66EEA56AF8EEE77A66EE866A67EEEE
S315080081C0A57A84ED037ABDEEC77A67EE867A17EE4E
S315080081D0103AC4ED046AFDEEE66A19B2C4ED057AF2
S315080081E016EE903AFDEEE77A1AB217EE903A1BB2FF
S315080081F021806280A38009F019F906B0BDE8F081F4
S31508008200C402002068040020C80200206F12833BC5
S315080082100000C842E05001082DE9F041184D86B02B
S3150800822001244FF0FF3705AE4FF00A082346CDE983
S31508008230014700960022A62128468DF8148004F0EE
S3150800824079FF22238DF81430CDE90147234600969D
S315080082500422A621284604F06DFF04238DF8143065
S3150800826005222346A621CDE901470096284604F0B3
S3150800827061FF404600F040FA06B0BDE8F08100BF55
S315080082806804002030B587B00023214D8DF81730DB
S315080082904FF0FF3401230DF1170201930092A72135
S315080082A007221C48029405F01FF89DF81710284667
S315080082B009F0BCF89DF81720082A4FF00103E9D108
S315080082C002940322144C019200941022A72111480B
S315080082D005F00AF8A278637824789FED107A03EB04
S315080082E0022304EB032407EE904AF8EEE76A0C4BE8
S315080082F0C6EE877AC3ED007A17EE900AFFF704F9FF
S3150800830002460B460748214609F090F807B030BDEB
S31508008310FF50010868040020E002002000C00F4555
S31508008320E4020020125101081448DFF858C008B5C5
S315080083304FF40023C0E900C300230122042103836C
S31508008340C0E90233C0E90421C0E90A33C26180F8F2
S31508008350203080F83030436380F8383003F06CFD05
S3150800836008B101F0EFF9064B7F220521C3E9021295
S3150800837004200022C3E9040208BD00BFE802002069
S31508008380AC0300200000045070B59CB005461422CA
S31508008390002103A809F0B0F95022002108A809F025
S315080083A0ABF92A682A4B9A424FD118234FF4806EAC
S315080083B0CDE908E34FF400324FF00073CDE90A2304
S315080083C04FF000514FF0805308A8CDE90C131793CE
S315080083D006F067F808B101F0B5F94FF0B04300268A
S315080083E0DA6C1C481C4C42F40052DA64DA6C02F46B
S315080083F000520292029ADA6C42F00402DA64DB6CEA
S31508008400059603F004030193019B1822032303A98D
S31508008410CDE9032304F0AAFB104926620523802030
S31508008420C4E900134FF48073C4E904034FF4806C65
S3150800843020232046C4E90266C4E906C304F064FAA8
S3150800844008B101F07FF9EC64A5621CB070BD00BFED
S3150800845000000450000800484C03002008000240B1
S315080084600749084A084808B50623C1E9002303F066
S3150800847001FE18B1BDE8084001F064B908BD00BFA7
S31508008480AC0300201000C010E802002070B50C4BA9
S3150800849088B001AA03F118061546186859681446E3
S315080084A003C40833B3422246F7D119889B78218042
S315080084B0A37007F0FFFE284607F02AFC08B070BD37
S315080084C0685001087047000030B54368B3F80B30B0
S315080084D0B3F5124F89B0044626D1684607F034FC36
S315080084E0102200210DEB020009F006F963685D7B96
S315080084F0E5B9FFF7CBFF0F230F4A8DF810307F231E
S315080085008DF8123013681B0CADF81C30136804A8DC
S31508008510C3F30B03ADF81E3007F008FC02F0AAF807
S315080085202946012007F0F4FE09B030BD012D04BF2D
S3150800853000232370F8E700BF002004E0274B13B59B
S315080085404FF400424FF0B0441A61D4F894305A01FF
S3150800855013D5D4F89430DB000FD405F021F805F0D4
S315080085601FF8D4F8903043F48033C4F89030D4F828
S31508008570903023F48033C4F890304FF0B0443F2253
S31508008580236D43F480132365236D03F4801301934D
S31508008590019B134B9A609A615A6842F47C125A609E
S315080085A05A6942F47C125A615A6842F03F025A608C
S315080085B05A6942F03F025A61002007F08BFB58B116
S315080085C0084B8279C4F89C30D4F89C3023F47C5349
S315080085D043EA0223C4F89C3002B010BD004000589C
S315080085E0000C0058FECAFECA114AD36923F070036C
S315080085F0D361104BD3F8583582B0C3F303230193E4
S31508008600019B63B9D36923F00F0343F00403D361D5
S31508008610074AD36943F40043D36102B07047019B0C
S31508008620D169023B83F3040321F00F010B43EEE704
S31508008630000400580070FF1F034AD2F8903043F038
S315080086405003C2F8903070470008005810B588B03B
S31508008650FFF7CAFFFFF7F0FF204B214CCA225A62E8
S3150800866053225A629A6822F007029A60FF225A62D7
S315080086704FF0B042936843F40043936007F03EFE20
S31508008680184A1949D2F8803023F0070343F0040347
S31508008690C2F88030002000F055FC07F01DFD134A93
S315080086A00021802007F07AFF6946114B1148009493
S315080086B0019307F0A1FB04F58673029304F506738C
S315080086C0039302A840F23C5304F5497405930494B5
S315080086D007F0C2FD07F0FEFC08B010BD00280040F8
S315080086E0F8010320000400586C0500204DFE000820
S315080086F0C5840008C984000870B5044603F072FBF7
S31508008700631C054602D003F079FB0444064E04E0D8
S31508008710336923F00403336130BF03F063FB431B63
S31508008720A342F5D370BD00BF00ED00E04FF0FF3067
S3150800873007F070BE70474FF0FF3007F06BBE0021A0
S31508008740802007F0FBBD022007F036BE022007F0A6
S31508008750F3BE4FF0B04307B59A6C42F004029A6430
S315080087609A6C02F004020192019A9A6C42F0010294
S315080087709A649B6C002203F00103009311460B20B8
S31508008780009B04F001F80B2003B05DF804EB04F03D
S315080087902DB8000000B595B04FF480730D930623ED
S315080087A007931448002341F2883207A9CDE90E330E
S315080087B0CDE9123310930C9305F01BF8B0B90223D8
S315080087C00122CDE901331023CDE903324FF48001AC
S315080087D00523CDE906134FF08073059010930548DD
S315080087E041F2883301AA07A905F0FFF815B05DF82C
S315080087F004FB00BF2805002030B58FB04FF4807306
S31508008800662207934FF400530493019200234748C6
S31508008810099341F2883201A9CDE90C3308930293F2
S315080088200A93069304F0E5FF10B101200FB030BD9E
S315080088302F2400BF013CFCD14FF4807307934FF4FB
S31508008840005599233948049541F2883201A9CDE9A2
S315080088500C4409940193089402940A94069404F02B
S31508008860C8FF0028E1D14FF4007307932F480495F9
S31508008870662341F2883201A9CDE90C440994019393
S31508008880089402940A94069404F0B3FF0028CCD105
S315080088902F2400BF013CFCD14FF4007307934FF41B
S315080088A0005599232148049541F2883201A9CDE95A
S315080088B00C4409940193089402940A94069404F0CB
S315080088C098FF0028B1D14FF44073079317480495D1
S315080088D0662341F2883201A9CDE90C440994019333
S315080088E0089402940A94069404F083FF00289CD105
S315080088F02F2300BF013BFCD14FF4407207924FF47F
S3150800890000520492992201920848099341F288324A
S3150800891001A9CDE90C33089302930A93069304F050
S3150800892068FF003818BF012080E700BF280500202F
S3150800893070B58EB0052200234FF4807601924FF071
S31508008940807501242F48009341F2883201A9CDE9A8
S315080089500833CDE90C3307960A9506930B9404F071
S3150800896048FF10B101200EB070BD264841F288328A
S31508008970694604F0DBFF0028F4D1CDE90800CDE90B
S315080089800C001523069041F288321E48079601A965
S3150800899001930A950B9404F02CFF0028E2D119489C
S315080089A041F288320DF1010104F0C0FF0028D9D147
S315080089B0BDF80030099043F4404343F04003ADF856
S315080089C000304FF40053CDE90C000493089006904C
S315080089D002230C48079641F2883201A901940A95A8
S315080089E00B9304F006FF0028BCD1064841F28832F2
S315080089F0694604F042FF0028B5D000F0A3FE2046E1
S31508008A00B1E700BF2805002000B595B04FF4807384
S31508008A100D934FF0807205230793109200230122CD
S31508008A20CDE90423CDE90E33CDE912330C93019336
S31508008A30102303934FF480030292069301AA41F28E
S31508008A40883307A9024804F0D0FF15B05DF804FB87
S31508008A50280500200F4808B50F4B036004F0B6FE42
S31508008A6008B1012008BD01F0A3FBFFF7C5FE0028E9
S31508008A70F7D10120FFF740FEFFF7C6FF0028F0D127
S31508008A80FFF788FE0028ECD1FFF752FF003818BF21
S31508008A900120E7E728050020001000A070B58EB079
S31508008AA04FF480734FF0807207930A920023294887
S31508008AB006930525012641F2883201A9CDE9083336
S31508008AC0CDE90B6301950D9304F093FE0446002847
S31508008AD03BD1204841F288320DF1030104F026FF0C
S31508008AE0044690BBFFF756FE78BB9DF8033019483D
S31508008AF0019643F0400341F2883201A98DF803300C
S31508008B0004F077FE20BB134841F288320DF10301C9
S31508008B1004F0B3FEE0B9FFF777FFC8B90D48019531
S31508008B2041F2883201A904F064FE88B9094841F285
S31508008B3088320DF1030104F0F9FE48B99DF80330B7
S31508008B405B0602D4044808F0D7FC20460EB070BD78
S31508008B500446FAE7280500205B52010810B58EB0D6
S31508008B604FF4807302914FF4005107930491EB235D
S31508008B704FF0407101934FF4406E00230A9106218D
S31508008B80CDE908E3CDE90B23044606910D93FFF7DB
S31508008B9085FF10B90A4808F049FC0A4841F28832AC
S31508008BA001A904F026FE40B9064841F2883221465A
S31508008BB004F0BCFE08B9FFF727FF0EB010BD00BFD2
S31508008BC0675201082805002010B586B024490446D6
S31508008BD0062204A8FFF7C2FF9DF8153002939DF8F8
S31508008BE0143001939DF8133000939DF811209DF8D9
S31508008BF012309DF810101B4808F018FC012C18D1EB
S31508008C00194B9DF812201A709DF811205A709DF87C
S31508008C1010209A700022DA701C681448214608F061
S31508008C2005FC134B621E9A4288BF0024204606B0F4
S31508008C3010BD94B9BDF814200B4B52BA1A809DF892
S31508008C4013209A70DC701C680A4AA4F57F23013B3E
S31508008C50934288BF4FF47F24E8E76FF07F44E5E747
S31508008C6000F01F0073520108C40300209352010844
S31508008C70FDEF0F00FDFF0F004FF0B04382B0DA6C36
S31508008C800243DA64DB6C03400193019B02B0704730
S31508008C9030B587B01422002101A808F02DFD042064
S31508008CA0FFF7EAFF0220FFF7E7FF0120FFF7E4FFDF
S31508008CB0234D0820FFF7E0FF4FF4806101224FF0B3
S31508008CC0904004F08DF8284601224FF4604104F0E4
S31508008CD087F800244FF482524FF4441301A9194827
S31508008CE00394CDE9012303F041FF4FF4806111237A
S31508008CF0CDE901134FF09040032301A9049303948F
S31508008D0003F034FF01234FF46040CDE9010301A9C4
S31508008D102846CDE9034403F029FF224621461720B9
S31508008D2003F032FD172003F061FD22462146282074
S31508008D3003F02AFD282003F059FD07B030BD00BF17
S31508008D40000C004800080048054A906A936A80B2F9
S31508008D509BB2984200D17047916A18468BB2F8E7E1
S31508008D6000280040F0B51B4A137883421A4B17D1E6
S31508008D7014781A4DE4B22C70182404FB0034647D70
S31508008D80E4B21470182404FB00300123037313782B
S31508008D90062B04D119B9124B4FF0FF321A60F0BDF9
S31508008DA0182707FB0034267D94F815E094F815C0BB
S31508008DB007FB06365FFA8CFCBEF1060F86F815C06F
S31508008DC018BF267D5FFA8EF51EBF07FB0534F6B27F
S31508008DD02675D7E7C9030020D8030020CC03002056
S31508008DE0D003002010B50D4C2368013313D0FFF7CC
S31508008DF0ABFF236883423DBF094B22681B88236863
S31508008E0038BF9B18181A074B1B785843064B1B7814
S31508008E10D84080B210BD0020FBE700BFD003002079
S31508008E20D4030020C8030020D60300203C4B2DE9BC
S31508008E30F0413C4E9B68376813F4806F03D0FB689B
S31508008E4013F0040FFAE7BB68DFF8F48023F48063B5
S31508008E50BB60354B1B781822DDB202FB03839C6886
S31508008E60FFF7C0FFA042314B06D901221A70002431
S31508008E7018214FF0000C1CE02D490A8810FA82F2DE
S31508008E80A24239BF0C880022241A012234BFA4B298
S31508008E90A4B21A70ECE701FB058301FB05859A6805
S31508008EA0904297BF9A68C3F808C0121A9A606D7DF7
S31508008EB0EDB2062DEFD144B9FFF746FF1D4BBDE8CD
S31508008EC0F0411860032003F0C5BC012C03D11A4BEE
S31508008ED01B78012B01D0013CA4B2FB685B07FCD5CB
S31508008EE0FB68DBB263F49063FB60144B4FF400221B
S31508008EF0DA60032003F0BCFC094A53691B0C1B0407
S31508008F0023435361FFF720FF0A4B326818609368C2
S31508008F1043F480639360AFF30080BDE8F08100BF3F
S31508008F20002800406C050020C9030020D703002054
S31508008F30CA030020D0030020D603002000080058EA
S31508008F40D803002070B5404C2168CA234B625323CE
S31508008F504B623E4B9A6842F020029A609D683C4AF2
S31508008F6005F00705C5F10405EDB215701A694FF449
S31508008F70FE0602F4FE0296FAA6F6B6FA86F6F2405F
S31508008F800132344ED2B232701B69334EC3F30E032C
S31508008F9001333380013B5343A3F5A073EB404FF6EF
S31508008FA0FE7293422D4A8CBF4FF6FF739BB2138015
S31508008FB02B4A136843F400231360D2F8803043F435
S31508008FC00023C2F88030002836D1264B01251D70B3
S31508008FD0254B4FF0FF351D60244B187383F824008A
S31508008FE083F83C0083F8540083F86C0083F8840007
S31508008FF01F4B062018708B6823F480638B60CB6840
S31508009000DBB263F49063CB604FF40023D360032094
S3150800901003F02EFC2268936843F480439360236828
S31508009020FF2203215A620846002203F0ADFBBDE881
S315080090307040032003F0DABBCB685B05EFD503204D
S3150800904003F008FCEBE700BF6C0500200028004091
S31508009050D6030020C8030020D4030020CA0300203A
S3150800906000080058D7030020D0030020D8030020AA
S31508009070C90300202DE9F0470646EFF3108772B6BC
S31508009080DFF8409000254FF0180A0AFB05945FFAAE
S3150800909085FE94F80CC00CF0FF00BCF1000F0AD155
S315080090A00125257387F3108826616273236081F88A
S315080090B000E0BDE8F0870135062DE6D187F3108874
S315080090C00120F6E7D803002070B50446EFF31086B2
S315080090D072B6234D032003F097FB2B68CA225A6207
S315080090E053225A621F4B182202FB04331B7B022BA6
S315080090F025D100212046FFF735FE1B4B1B78062B92
S31508009100DAB225D1194B9A682B6812F4806F03D00E
S31508009110DA6812F0040FFAE79A6822F480629A6015
S31508009120DA685207FCD5DA68D2B262F49062DA607D
S315080091300F4B4FF40022DA60032003F099FB2B68EB
S31508009140FF225A62032003F051FB86F3108870BD94
S31508009150084B1B789342F2D0FFF768FEEFE700BF93
S315080091606C050020D8030020C90300200028004011
S3150800917000080058CC0300202DE9F0474F4C18236F
S3150800918003FB004305461B7B022B0F4601D1FFF765
S315080091909BFFEFF3108672B6DFF83091032003F0D9
S315080091A033FBD9F80030CA224FF0180A5A620AFB74
S315080091B0054853225A62022388F80C30C8F808700A
S315080091C0C8F804703E4F3B78062BDAB21DD13B78BF
S315080091D03C49DBB20B703C4B3D7088F815204FF0CC
S315080091E0FF321A600020374A3B7812789A425ED0DE
S315080091F0FFF71CFED9F80030FF225A62032003F05D
S31508009200F5FA86F31088BDE8F087FFF7EBFDD8F886
S3150800921008300344C8F80830D8F808103B780AFB29
S3150800922003439B68994225D33A78D3B20AFB024294
S31508009230527DD2B2062A04D00AFB024292689142B3
S3150800924014D2182202FB0341497D5FFA81FC0629E4
S315080092501CBF02FB0C421575182202FB054181F85A
S3150800926015C00B7502FB03435D75BCE70AFB034398
S315080092705A7DDAE73B783A789342D9B20AFB03F388
S3150800928011D023441A7D5FFA82FC0AFB0242557507
S3150800929088F8151088F814C01D753B78094ADBB2A2
S315080092A013703D709FE788F815102344F4E71823D8
S315080092B003FB0544A3681B1AA3609BE7D803002099
S315080092C0C9030020CC030020D00300206C05002031
S315080092D0104700002DE9F84FEFF3108572B6294CB8
S315080092E0294923684FF0CA094FF05308C3F8249058
S315080092F0C3F824809A6822F480629A60234A127816
S315080093001820D6B242438F18387B02282DD1204B1D
S3150800931051F802B0D7F810A01B780BB37B7B012B52
S31508009320D9B217D13046FFF71DFD85F31088796845
S315080093303046FFF721FF23685A46C3F82490314682
S31508009340C3F824805046FFF7C3FF2368FF225A62FA
S31508009350BDE8F88F85F310883046FFF7B5FEEAE7D3
S31508009360FFF764FD85F31088EFE7DA685207FCD546
S31508009370DA68D2B262F49062DA60064B4FF40022E1
S31508009380DA60EFE76C050020D8030020C903002047
S31508009390D70300200008005808B51248124A134B94
S315080093A0C0E9002300230122C0E90232C0E90433E0
S315080093B0C0E90633036203F068FE08B100F0C2F99B
S315080093C00848002104F06EF808B100F0BBF905481A
S315080093D0002104F08DF818B1BDE8084000F0B2B9D4
S315080093E008BD00BF68040020005C0040BB7C70001C
S315080093F010B59CB004461422002103A808F07CF995
S315080094005022002108A808F077F92268184B9A42DA
S315080094102CD10823089308A84FF44013119305F09C
S3150800942040F808B100F08EF94FF0B0444FF4C0424E
S31508009430E36C104843F00203E364E36C03F00203B1
S315080094400293029B1223CDE903230023CDE90533BA
S3150800945003A90423079303F089FBA36D43F40003D0
S31508009460A365A36D03F400030193019B1CB010BD13
S31508009470005C004000040048054808B5054B036039
S3150800948004F06CF818B1BDE8084000F05BB908BDF7
S31508009490BC040020000C005807B5124B02689A421B
S315080094A01DD14FF0B0432C201A6D42F480121A6574
S315080094B01B6D002203F4801311460193019B03F0F0
S315080094C063F92C2003F092F9002211462D2003F0AF
S315080094D05BF92D2003B05DF804EB03F087B903B000
S315080094E05DF804FB000C005810B59AB04FF0B04474
S315080094F04822002108A808F0FFF81C22002101A82C
S3150800950008F0FAF8E36823F07003E360E36823F0F1
S31508009510030343F00103E36004F042F8D4F8903003
S315080095201D4A23F0180343F01003C4F8903013685B
S3150800953023F4C06343F400731360136803F4C06331
S315080095400093009B27214FF480330124CDE90813AB
S315080095504FF48073CDE90A4340230C93602200231D
S3150800956008A8CDE910320F94139304F083FB08B1D1
S3150800957072B6FEE7CDE90300CDE905006F220223A6
S315080095800790214601A8CDE9012304F03DFE08B164
S3150800959072B6FEE71AB010BD0004005800B595B0C3
S315080095A00021402201A808F0A7F84FF44053009381
S315080095B04FF480410223CDE9111368461023139313
S315080095C004F06FFF08B172B6FEE715B05DF804FB4C
S315080095D000B58BB002F0E4FBFEF7B0FFFFF784FF9F
S315080095E0FFF7DCFFFFF748FFFFF752FBFFF7B1F87D
S315080095F0FEF79AFEFFF7D0FE00F0DAFD00F062FEF5
S3150800960000F04AFF00F05CFEFEF706FEFFF722FABE
S3150800961000F004FB244B0893244B0793244B069332
S31508009620244B0593244B0493244B0393244B029316
S31508009630244B0193244B254A254900932548264B5C
S3150800964000F0DBFB802000F03FFD9FED150B00F0DE
S31508009650BDF900F07DFD802802D0802000F034FDA1
S315080096600A20FFF749F8FEF7A3FC40211B4803F040
S31508009670B1FB1B4B4FF480511870184803F0AAFB36
S31508009680184B012218704FF480614FF0904003F098
S31508009690A7FBFEF7DBFFFFF749F8FCE7AFF300800F
S315080096A0000000000000F03F20000020FA0400201F
S315080096B01E0000201C0000201800002014000020B6
S315080096C0100000200C0000200800002028000020C0
S315080096D0240000202C00002030000020000800484C
S315080096E0F8040020F904002007B54FF6FF7301902F
S315080096F0012201A9034805F0A1FC019803B05DF811
S3150800970004FB00BF9405002013B50D4C00238DF80B
S315080097100730236808221A620DF107014FF6FF7316
S315080097200122204605F0E0FC4FF6FF7301220DF1F9
S315080097300701204605F082FC9DF8070002B010BD1F
S315080097409405002072B6FEE737B505460C4644F286
S3150800975005000DF1060100F05DFC00280DDBBDF8E3
S3150800976006302B800DF1060144F2080000F052FC89
S315080097700028A4BFBDF80630238003B030BD0128F9
S315080097802DE9F7430D46144606D0022845D06FF05A
S31508009790150003B0BDE8F083022700EB400044F251
S315080097A001061FFA80F916FA80F00DF1060100B2DB
S315080097B000F030FC0028ECDB09F580400DF10601CD
S315080097C000B2BDF8068000F025FC0028E1DBBDF9F3
S315080097D0063003FA88F303EBD37307EB47075B10EE
S315080097E0B8192B800DF1060100B200F013FC002811
S315080097F0CFDB07F580470DF1060138B2BDF80650F4
S3150800980000F008FC0028C4DBBDF9063003FA85F32E
S3150800981003EBD3735B102380BBE70127BDE700008A
S315080098202DE9F04116468846FDF75CFE144B0022EA
S31508009830FDF7ECFF044630460D46FDF753FE114B87
S315080098400022FDF7B9FE22462B46FDF7B5FE064671
S3150800985040460F46FDF746FE02460B463046394659
S31508009860FDF7F4FC02460B4620462946FDF7CEFFD7
S31508009870054B0022FDF7A0FE41EC100BBDE8F08178
S31508009880000028400000503F00002041014401EB41
S31508009890D1712DE9F041481016469846FDF722FE8B
S315080098A01A4B0022FDF7B2FF044630460D46FDF777
S315080098B019FE164B0022FDF7A9FF0646BDF918004A
S315080098C00F46FDF70FFE124B0022FDF775FE024606
S315080098D00B4630463946FDF76FFE064640460F46AC
S315080098E0FDF700FE02460B4630463946FDF7AEFC4C
S315080098F002460B4620462946FDF788FF054B0022FF
S31508009900FDF75AFE41EC100BBDE8F0810000284037
S315080099100000503F00002041F8B51646BDF920204A
S315080099201F46FFF77DFF384655EC104BFDF7DAFD6D
S31508009930234B0022FDF740FE02460B4620462946E9
S31508009940FDF782FC044630460D46FDF7CBFD1D4B60
S315080099500022FDF731FE224606460F462B462046D4
S315080099602946FDF729FE02460B4630463946FDF7DD
S3150800997023FE064606980F46FDF7B4FD02460B463B
S3150800998020462946FDF742FF0F4B0022FDF714FE3D
S3150800999002460B4630463946FDF758FC04460798FA
S315080099A00D46FDF79FFD064B0022FDF705FE024614
S315080099B00B4620462946FDF749FC41EC100BF8BD3D
S315080099C00000703F0000303D00003041014B83ED40
S315080099D0000B7047000500200B4B07B593ED000BF5
S315080099E0002251EC100B00238DED000BFEF74CF80E
S315080099F09DED000B08B19FED020B03B05DF804FB6B
S31508009A00000000000000F03F0005002000000000F4
S31508009A102DE9F04F2DED088B85B016461F46834677
S31508009A200391FFF7D9FF0398DDF85C808DED000BF5
S31508009A30FDF758FD044638460D46FDF753FD6E4BB7
S31508009A400022FDF7B9FD02460B4620462946FDF7DA
S31508009A50FBFB044630460D46FDF744FD674B0022E6
S31508009A60FDF7AAFD02460B4620462946FDF7CEFE1F
S31508009A70634B0022FDF7EAFB0446BDF968000D4674
S31508009A80FDF730FD5F4B0022FDF796FD41EC180B04
S31508009A901898FDF727FD5A4B06460F460022204622
S31508009AA02946FDF7D1FB02460B4630463946FDF7F7
S31508009AB083FD554B0022FDF77FFD41EC190BBDF9DF
S31508009AC06400FDF70FFD514B0022FDF775FD504B65
S31508009AD04FEAE8720F464FEA480103FB02110646B1
S31508009AE0A8FB03031944FDF739FD02460B46304629
S31508009AF03946FDF761FD3CA3D3E9002341EC1A0B77
S31508009B0020462946FDF7A2FB04460D4602460B46AB
S31508009B10FDF752FD22462B46FDF74EFD22462B4603
S31508009B20FDF74AFD364D41EC1B0B4FF0050A0024A4
S31508009B305846FDF7D7FC064616980F46FDF7D2FCA1
S31508009B402F4B80468946002220462946FDF77CFB96
S31508009B5002460B4640464946FDF72EFD2A4B002293
S31508009B60FDF72AFD2B4B0022FDF770FB53EC192B52
S31508009B70FDF76CFB53EC1A2BFDF71EFD264B002256
S31508009B80FDF71AFD1AA3D3E90023FDF73FFEDDE929
S31508009B900023FDF711FD02460B4630463946FDF710
S31508009BA035FE53EC1B2BFDF751FB41EC100B0BF06C
S31508009BB047F90BF045F90CA3D3E9002351EC100B38
S31508009BC0FDF742FB53EC182BFDF73EFB0AF1FF3A73
S31508009BD01AF0FF0A04460D46AAD145EC104B05B00B
S31508009BE0BDEC088BBDE8F08F666666666612714046
S31508009BF0000000205FA002420000703F0000F03E17
S31508009C00000039400000503F0000B03D0000103F02
S31508009C1000E40B540000F03F0000103D07B542F287
S31508009C200B4001A900F0F6F900281FDB9DF8043067
S31508009C30052B1ED10DF1060143F6FF7000F0EAF977
S31508009C40002813DBBDF8061021F0010189B243F69E
S31508009C50FF7000F01BFA002808DBBDF8043003F497
S31508009C60FE43B3F5A06F14BF0020222003B05DF8B1
S31508009C7004FB6FF07A00F9E707B543F201000DF12E
S31508009C80060100F0C7F900281DDBBDF8061021F013
S31508009C90060189B241F0040143F2010000F0F6F929
S31508009CA0002810DB062143F2050000F0EFF9002832
S31508009CB009DBC821962000F0FFF9BDF8061043F22B
S31508009CC0010000F0E3F903B05DF804FB07B500B244
S31508009CD00DF1060100F09EF90028A1BFBDF8063077
S31508009CE04FF4FA60C3F30223184103B05DF804FB8E
S31508009CF038B500F02DFA041E13DB802C04D0912C05
S31508009D0011D06FF015040CE042F2E140FFF7DEFFD8
S31508009D10041E06DB42F2E240FFF7D8FF002818DBF4
S31508009D200444204638BD42F2F140FFF7CFFF051E36
S31508009D300DDB42F2F240FFF7C9FF041EF1DB42F2E7
S31508009D40F340FFF7C3FF002803DB2C44E8E72C4663
S31508009D50E7E70446E5E713B543F201000DF106010E
S31508009D6000F058F9031E16DBBDF8061043F2010091
S31508009D7041F40061ADF8061000F088F9031E0ADB0D
S31508009D80FFF7B6FF031E06DB00F09CF96524013CCD
S31508009D9004D16FF07303184602B010BD0DF1060129
S31508009DA043F6FF7000F036F9031EF4DBBDF8063003
S31508009DB013F4806006D042F6F82142F2107000F0E3
S31508009DC07BF9E4E70346E6E773B5064601911446D0
S31508009DD01D46FFF7C0FF00280DDB01993046FFF747
S31508009DE0B3FC002807DB2A462146022002B0BDE85C
S31508009DF07040FFF7C4BC02B070BD70B50E46014690
S31508009E0042F20C4015461C4600F01CF9002853DBAC
S31508009E10314642F20E4000F015F900284CDB29467F
S31508009E2042F2124000F00EF9002845DB214642F2C4
S31508009E30104000F007F900283EDB049942F224405E
S31508009E4000F000F9002837DB059942F2264000F0B9
S31508009E50F9F8002830DB069942F2284000F0F2F8BB
S31508009E60002829DB079942F22A4000F0EBF800287F
S31508009E7022DB089942F22C4000F0E4F800281BDBAC
S31508009E80099942F22E4000F0C5F8002814DB0A9919
S31508009E9042F2814000F0BEF800280DDB0B9942F231
S31508009EA0824000F0B7F8002806DB0C9942F22F40F2
S31508009EB000F0B0F800EAE07070BD00002DE9F04F40
S31508009EC0DFF848B1DFF848A13D4C3E4D89B05B4606
S31508009ED0524621462846FFF777FF3B4BB5F9006007
S31508009EE0B3F90080394BB4F90070CDF808801B68C7
S31508009EF00193374B374A1B680093374B12681B6828
S31508009F00364D39463046FFF707FD51EC100BFDF785
S31508009F104BFE42460446686039463046FFF780FCE9
S31508009F202F4BBBF90010BAF9000083ED000B2D4B3F
S31508009F30B3F90030009332463B4659EC108BFFF7D5
S31508009F40A5FC294B494683ED000B404657EC106BA0
S31508009F50FDF7E2FD394680463046FDF7DDFD234B29
S31508009F60234AB3F900300493224BB3F90030039324
S31508009F70214B1B680293214B1B680193204B1B68DE
S31508009F800093204B12681B684146FFF741FD51ECD0
S31508009F90100BFDF709FE2860FDF7B6FA02460B46D8
S31508009FA02046CDE90623FDF7AFFADDE90623CDE91C
S31508009FB00001154807F03AFA284609B0BDE8F08FBF
S31508009FC0FE040020FC0400201C00002028000020BD
S31508009FD024000020300000202C0000200805002066
S31508009FE0180500202000002020050020FA04002083
S31508009FF0080000201E000020140000201000002089
S3150800A000180000200C000020A552010812050020A7
S3150800A0101005002010B5022386B04FF0FF32CDE9B7
S3150800A020013205AA0C460092742182B2044803F054
S3150800A0305BF9BDF814305BBA238006B010BD00BFCB
S3150800A0406804002010B5042386B04FF0FF32CDE92E
S3150800A050013205AB0C46009382B2022374210A48EA
S3150800A06003F042F99DF817309DF816201B0443EAC1
S3150800A07002639DF8152013439DF8142043EA022332
S3150800A080236006B010BD00BF680400207FB5022318
S3150800A0904FF0FF32CDE9013249BA05AAADF81410DE
S3150800A0A00092742182B2034803F044F807B05DF8C1
S3150800A0B004FB00BF680400204FF47A7390FBF3F0AA
S3150800A0C0FEF71ABBFEF718BB420613B500F07F036E
S3150800A0D0044601D0112B37D1FFF7CEFD002831DB1E
S3150800A0E00DF1060143F20100FFF794FF002829DB72
S3150800A0F0BDF80610230103F4FE6321F4FB7119432E
S3150800A10089B243F20100ADF80610FFF7BFFF002839
S3150800A11018DB0DF1060143F20100FFF77BFF00286B
S3150800A12010DBBDF8061021F0060189B223064CBFE4
S3150800A13041F0020141F0060143F20100ADF80610B4
S3150800A140FFF7A4FF02B010BD6FF01500FAE7000094
S3150800A15007B543F201000DF10601FFF75BFF002882
S3150800A1600CDBBDF806300B4AC3F30410C240D20715
S3150800A1700CD503F00603022B03D1803003B05DF83B
S3150800A18004FB062B18BF6FF01500F7E76FF01500F4
S3150800A190F4E700BF010002004FF0B04382B0DA6C6A
S3150800A1A00243DA64DB6C03400193019B02B07047FB
S3150800A1B00A480B4A08B50023C0E900230522C0E96E
S3150800A1C002231422C0E90423836103F0AFFA18B10D
S3150800A1D0BDE80840FFF7B6BA08BD00BF280500204D
S3150800A1E0001000A070B5044686B01422002101A80C
S3150800A1F007F082FA22681E4B9A4236D14FF0B043D6
S3150800A20002201A6D42F480721A651B6D03F480737E
S3150800A2100093009BFFF7C0FF0120FFF7BDFF082052
S3150800A220FFF7BAFF02264FF4007300240A251148E7
S3150800A230059501A9CDE90136CDE9034402F096FC5E
S3150800A240082301A94FF09040CDE90136CDE9034432
S3150800A250059502F08BFCE8230748059501A9CDE989
S3150800A2600136CDE9034402F081FC06B070BD00BF9B
S3150800A270001000A000040048000C004808B5026859
S3150800A2800C4B9A4215D14FF0B0420B48136D23F48C
S3150800A290807313654FF4007102F01EFD08214FF01C
S3150800A2A0904002F019FDBDE808400448E82102F094
S3150800A2B013BD08BD001000A000040048000C0048AB
S3150800A2C0704700000F48104A08B50023C0E900236C
S3150800A2D00F2147F6FF72C0E90212C0E9063303618F
S3150800A2E0436104F0D3FA08B1FFF72CFA00220548B7
S3150800A2F0114604F065FC18B1BDE80840FFF722BA1C
S3150800A30008BD00BF6C0500200028004010B50446B3
S3150800A31096B05022002102A807F0EEF92268154BE4
S3150800A3209A4224D14FF40063029302A84FF4807333
S3150800A330129304F0B6F808B1FFF704FA4FF0B043E9
S3150800A3400320D3F8902042F40042C3F890209A6D77
S3150800A35042F480629A659B6D002203F48063019340
S3150800A3601146019B02F010FA032002F03FFA16B0DC
S3150800A37010BD00BF002800404FF0B04307B51A6D66
S3150800A38042F400221A651B6D002203F40023019390
S3150800A39011462E20019B02F0F7F92E2003B05DF836
S3150800A3A004EB02F023BAFEE7FEE7FEE7FEE7FEE768
S3150800A3B070477047704701F009BDFEF78BBF000074
S3150800A3C0014802F089BB00BF4C030020402002F080
S3150800A3D00DBD4FF4805002F009BD01F02DBC01F00F
S3150800A3E0DBBB02F011BD0120704708B507F0D6F9AE
S3150800A3F0162303604FF0FF3008BD08B507F0CEF905
S3150800A40016230360FEE770B50D4614460E46731B09
S3150800A4109C4201DC204670BDFFF776F906F8010B71
S3150800A420F5E770B50D4614460E46731B9C4201DCD3
S3150800A430204670BD16F8010BFFF756F9F5E74FF001
S3150800A440FF3070474FF400534B60002070470120DF
S3150800A45070470020704700000B4A116810B5034684
S3150800A46009B90A491160106809490A4C0344091BCD
S3150800A4708B4206D907F092F90C2303604FF0FF30A0
S3150800A48010BD1360FCE700BF90050020880B002074
S3150800A49000000320000400001648174A08B54FF4C8
S3150800A4A01653C0E9002300230C22C0E90233C0E991
S3150800A4B00523C0E9083303618362436604F0DDFEC1
S3150800A4C008B1FFF73FF90B48002104F044FF08B133
S3150800A4D0FFF738F90748002104F05DFF08B1FFF7D8
S3150800A4E031F9044804F01CFF18B1BDE80840FFF72D
S3150800A4F029B908BD940500200080004070B59CB0BD
S3150800A50004461422002103A807F0F6F85022002179
S3150800A51008A807F0F1F82268204B9A423BD102239B
S3150800A52008A8089303F0BDFF08B1FFF70BF94FF031
S3150800A530B0431B48DA6D42F00102DA65DA6D02F0C3
S3150800A54001020292029ADA6C42F00402DA64DA6CC8
S3150800A55002F004020192019ADA6C42F00202DA640D
S3150800A560DB6C03F002030093009B02260123002400
S3150800A570082503A9CDE90336CDE90544079502F078
S3150800A580F5FA20230748079503A9CDE90336CDE94F
S3150800A590054402F0EBFA1CB070BD00BF0080004015
S3150800A5A0000800480004004810B5054C94F88030AF
S3150800A5B0052B04D004F010FF002384F8803010BD6A
S3150800A5C02806002010B504464068083005F046FD08
S3150800A5D0003818BF0120207010BD10B1012803D023
S3150800A5E070477F2005F0C0BE7F2005F0D9BE000069
S3150800A5F008B50E4BD3F88025511C0DD00C48D3F85E
S3150800A60084350270120A42701A0A8370C2701A0CD4
S3150800A6101B0E0271437108BD002005F05BFB024664
S3150800A6200448002A18BF1046F5E700BF0070FF1F50
S3150800A630B0060020F752010800B50C4B89B001227C
S3150800A64083F880200023CDE90533CDE90333CDE92E
S3150800A65001330093A0228021184604F0DBFE04494A
S3150800A660112009B05DF804EB04F0F6BF28060020B7
S3150800A6703400002070B59AB0FFF7BAFF524B427902
S3150800A680DA7202791A73C2785A7382789A734278A0
S3150800A690DA7302781A744D4B0BAA03F1380516467D
S3150800A6A018685968144603C40833AB422246F7D1E2
S3150800A6B01B88238009AD464B464809932946464BD5
S3150800A6C00A9305F015FA0121022005F021FE022061
S3150800A6D0424A002105F062FF304605F00BFB08B13F
S3150800A6E0FFF730F80024ADF81C4005F0BBF9FFF77A
S3150800A6F07FFF06210246204605F03CF9384A10211C
S3150800A700182005F037F9374A1021082005F032F9E4
S3150800A7101F21012005F05CF905F00CF80DF1220364
S3150800A72001950093052208AB2146012004F052FF4B
S3150800A7302D4BBDF82210009322460523BDF82000B4
S3150800A7402A4D05F0C1F807ABBDF824100093224640
S3150800A7500223BDF8200005F0B7F80222114620466C
S3150800A76005F09EF90420287004F0ACFE204BAB607F
S3150800A770012241F20801A9806A706A801021CDE998
S3150800A78003340823CDE900310294234611461046C6
S3150800A79004F0BCFEAB780BB104F088FF05F048FC6A
S3150800A7A04FF6FF73134AEB820021012085F880409B
S3150800A7B005F0F4FE062005F031F900F077FD2C834C
S3150800A7C0FFF73AFF1AB070BD340000208350010825
S3150800A7D028000320C5A50008DBA5000845FB0008DE
S3150800A7E0E7520108D7520108D1520108280600206D
S3150800A7F007B20100A9A5000810B543783E2B17D06B
S3150800A800FF2B29D0052B11D11E4C8288E38A9A4248
S3150800A81002BF0023E38284F88030FFF70DFF1A4851
S3150800A82001230370E38A438000F00AFA012010BD71
S3150800A830C378012BFAD1134B93F88020042A0CBF56
S3150800A8400622052283F88020B0F805200E48DA8211
S3150800A850002303704280E7E7B0F8033040F2024273
S3150800A860934209D040F209429342DFD1054B0121B8
S3150800A870D88A04F039FFD9E7024B0449D88A04F08C
S3150800A88083FED3E728060020AC06002007B20100A5
S3150800A8900021022005F052BD012005F08DBD0120E2
S3150800A8A005F04ABE08B5082005F05EFD202005F033
S3150800A8B05BFD102005F058FD042005F063FD012816
S3150800A8C002D1042005F06CFDBDE8084002210420F1
S3150800A8D005F034BD08B5042005F046FD202005F036
S3150800A8E043FD102005F040FD082005F04BFD01282A
S3150800A8F002D1082005F054FD0820022105F01EFDAE
S3150800A900BDE80840014806F0F7BD00BFFD52010842
S3150800A91008B5042005F028FD082005F025FD1020BF
S3150800A92005F022FD202005F02DFD012802D120206A
S3150800A93005F036FDBDE808400221202005F0FEBCE2
S3150800A94008B5042005F010FD082005F00DFD2020AF
S3150800A95005F00AFD102005F015FD012802D110208A
S3150800A96005F01EFDBDE808400221102005F0E6BCF2
S3150800A97000214FF4807005F0E1BC0021402005F06D
S3150800A980DDBC000013B5FFF799FA2E4C2E4920605E
S3150800A99003680B602D4B42681A60012000F0F0FF37
S3150800A9A02949092000F0ECFF294A1378013313706E
S3150800A9B0284BB3F9001040F6FF7291421FD0264B80
S3150800A9C0B3F9003093421AD022688A4219D39A42C0
S3150800A9D027D8224806F090FD012400224FF4804132
S3150800A9E01F488DF8054002F0FBF922464FF4204136
S3150800A9F01B4802F0F5F901A9052000F0C1FF02B0D5
S3150800AA0010BD022317488DF8053006F075FD0022A3
S3150800AA104FF40051124802F0E3F901224FF4404185
S3150800AA20E6E7114806F068FD032300224FF40041CB
S3150800AA300B488DF8053002F0D3F901224FF4C041D6
S3150800AA40D6E700BFC4070020BE070020C0060020C6
S3150800AA50D00800205A0000205C0000200F5301088F
S3150800AA60000C0048185301082453010810B586B095
S3150800AA70FDF708FC144B1868144B059007EE900A6E
S3150800AA80FCEEE77A044617EE902A1A70104B186007
S3150800AA90FCF73AFD0B46210E0391C4F307410291D8
S3150800AAA0C4F30721E4B2024601910094094806F06E
S3150800AAB0BDFC05A9062000F063FF074A1378013399
S3150800AAC0137006B010BD00BFE4020020D0070020B6
S3150800AAD0CC08002030530108D008002010B5002209
S3150800AAE04FF480614FF0904002F07AF90120FDF7AB
S3150800AAF003FE0B4C01224FF480614FF0904002F0A8
S3150800AB006FF908490D2000F03BFF21460C2000F0A4
S3150800AB1037FF21780448BDE8104006F087BC00BF1F
S3150800AB20F8040020F904002052530108F8B5012062
S3150800AB3000AFFEF749F81C4D014604461B4806F0CF
S3150800AB4075FC2B681A48E41A06F0D6FCF72C0DD9C2
S3150800AB5029681848F722FEF701F81649042000F07C
S3150800AB600FFF2B68F7332B60BD46F8BD631EF62B27
S3150800AB7013D8E31D23F007036E46ADEB030D2968D2
S3150800AB8022466846FDF7EAFF0A49072000F0F8FE64
S3150800AB902B6823442B60B546E6E700232B60064B5B
S3150800ABA01878FEF791FADFE7D40800206753010802
S3150800ABB078530108C6060020C2070020F8B5002011
S3150800ABC000AF1B4CFEF700F82568451B194806F030
S3150800ABD093FCF72D0DD921681748F722FDF7BEFF1C
S3150800ABE01549072000F0CCFE2368F7332360BD46DD
S3150800ABF0F8BD6B1EF62B13D8EB1D23F007036E4624
S3150800AC00ADEB030D21682A466846FDF7A7FF0A49FA
S3150800AC10072000F0B5FE23682B442360B546E6E717
S3150800AC204FF47F232360054B1878FEF74DFADEE7CD
S3150800AC30600000209E530108C6060020D1070020A8
S3150800AC4008B50378012B11D1094B1878FEF73CFAA1
S3150800AC50084B1878FEF738FA074B1878FEF734FAD7
S3150800AC60064B1878BDE80840FEF72EBA08BD00BFA7
S3150800AC70D2070020C3070020D1070020C207002002
S3150800AC8070B519491948002203F058FF20B1FEF79C
S3150800AC9059FD174806F030FC16491448002203F0FF
S3150800ACA072FF20B1144806F027FCFEF74BFD0E4A4A
S3150800ACB0124C1178217051789278A2700D4A617001
S3150800ACC01178E170917821710D4E5178D2786171C1
S3150800ACD0A2710025294614F8012B3046013506F0E5
S3150800ACE0A5FB072DF6D170BDDC0800206C050020F9
S3150800ACF0BD530108D8080020C7530108C80700201B
S3150800AD00D153010837B5FDF7ABFB7F211C4801F08D
S3150800AD10DDFC01220DF10601194801F00DFCBDF814
S3150800AD200640174840F6E4435C4324134FF4966202
S3150800AD30A4F6B83393FBF2F303EB8303114A03EB50
S3150800AD4083039B00137001F082FC0F4B1D78012DC5
S3150800AD5014D140F6AB539C4210DC00224FF48061BC
S3150800AD604FF0904002F03CF82846FDF7C5FC2A460D
S3150800AD704FF480614FF0904002F032F803B030BDD6
S3150800AD80E8020020C4060020F804002000000000A5
S3150800AD9038B5214C214D7F21204601F097FC02222F
S3150800ADA02946204601F0C8FB1D4B1E48196806F0C7
S3150800ADB03DFB6888FCF796FB13A3D3E90023FCF751
S3150800ADC0FBFB13A3D3E90023FCF720FDFCF7ECFEFD
S3150800ADD0DFED157A07EE100A77EE677A17EE900A16
S3150800ADE0FCF792FB114B0022FCF710FDFCF794FED2
S3150800ADF00F4B41B20F48197006F018FB2046BDE804
S3150800AE00384001F024BC00BF9A9CC9999CC9E93F07
S3150800AE10498C900CC13AEA3FE8020020B6060020A9
S3150800AE20BC060020DB5301080000C84300803340FD
S3150800AE30C5060020E8530108F0B5037885B0044636
S3150800AE40172B00F27E81DFE813F018002700410077
S3150800AE505A0065007E0098007C017C01AA00C700A4
S3150800AE60D600EB00F9000E017C01130136013B0107
S3150800AE7070017C0173017C017601B34806F03CFB46
S3150800AE80FFF740FFB14BB2491B780B70002005B0A5
S3150800AE90BDE8F04000F074BDAE4806F02DFB082072
S3150800AEA005F062FA102005F05FFA202005F05CFA3A
S3150800AEB0A94B1878FEF708F9A84BA9491878FEF7A0
S3150800AEC05BF905B0BDE8F040FFF75CBDA34C207800
S3150800AED0FEF7FAF8042005F047FAA24AA24840F617
S3150800AEE0FF731380A14A4FF460411380012201F0D9
S3150800AEF077FF207805B0BDE8F040FEF7E5B89C4836
S3150800AF0006F0FAFAFFF744FF9A4B91491B780B7043
S3150800AF100220BCE7436893F9001093F9012093F9DE
S3150800AF20020002EB01228F4912B20A8093F903103C
S3150800AF308E4B01EB0021904809B2198005B0BDE897
S3150800AF40F04006F073BA042005F00EFA082005F062
S3150800AF500BFA202005F008FA7F4B1878FEF7B4F8AC
S3150800AF607E4B1878FEF7B0F8844B4FF4806118785A
S3150800AF7005B0BDE8F040FEF7FFB8774B1878FEF746
S3150800AF80A3F8764B1878FEF79FF87C4B1878FEF7EF
S3150800AF909BF8102005B0BDE8F04005F0E5B9FDF7CF
S3150800AFA03BF9774806F0A8FA042005F0DDF91020E9
S3150800AFB005F0DAF9202005F0D7F9684B1878FEF77E
S3150800AFC083F8654B41F603011878FEF7D5F805B006
S3150800AFD0BDE8F040FFF74ABD6A4806F08DFA08203A
S3150800AFE005F0C2F95C4B1878FEF76EF805B0BDE8B7
S3150800AFF0F040FDF711B9042005F0B6F9082005F070
S3150800B000B3F9102005F0B0F9534B1878FEF75CF841
S3150800B010524B1878FEF758F85B4B4FF48061A6E759
S3150800B020202005F0A1F94C4B1878FEF74DF84B4B4C
S3150800B0301878FEF749F8544B18785BE74368534885
S3150800B0401A684FF000531A6006F056FABFF34F8F8E
S3150800B0504F49504BCA6802F4E0621343CB60BFF312
S3150800B0604F8F00BFFDE7FFF78DFC4B4909200EE720
S3150800B070FDF724F8364C4948A7790278C378417811
S3150800B08085780679407962702170A3702071E57021
S3150800B0906671CDE90050CDE90267414806F0C6F968
S3150800B0A021460A2000F06CFC01463E4805B0BDE882
S3150800B0B0F04006F0BBB9FFF7E3FD3B490B20E6E697
S3150800B0C043683A491A780A705A784A709B78384819
S3150800B0D08B700022C1E90122C1E9032203F043FC77
S3150800B0E008B1FEF72FFB6268324BD17819701179D7
S3150800B0F05970314E517992799970DA700025237A10
S3150800B100E9B28B420AD82B492948002203F0A4FC4D
S3150800B110B8B105B0BDE8F040FEF714BB6368304629
S3150800B1205A5C06F083F90135E9E724490C20AEE6B6
S3150800B13023490D20ABE6234806F0DEF921490E2007
S3150800B140A5E605B0F0BD00BFF8530108C406002007
S3150800B150D307002007540108D2070020C3070020A0
S3150800B16046E001005A000020000C00485C00002060
S3150800B1701B540108C506002028540108C2070020F0
S3150800B1804054010852540108D107002065540108AB
S3150800B19000ED00E00400FA05C0060020C802002001
S3150800B1A06B54010885540108C8070020DC080020F4
S3150800B1B06C050020D808002091540108F8040020E6
S3150800B1C0F90400204500002010B504461A4806F088
S3150800B1D093F9B4F5805F11D12146184801F0FAFDBC
S3150800B1E0174B01461870174806F020F9164BBDE8AC
S3150800B1F01040187840F60101FDF7BEBF402CF5D186
S3150800B20021460E48114C01F0E5FD4FF4805120709F
S3150800B2100A4801F0DFFD0A4B217818700C4806F041
S3150800B22005F92378012BE1D10A4B4FF48061187890
S3150800B230FDF7A2FFDAE700BFA4540108000800489A
S3150800B240F9040020AF540108BD070020F8040020C7
S3150800B250C6540108CF07002010B5074A00214FF44D
S3150800B260807005F09BF90022BDE81040034B0449A5
S3150800B2701046FDF7FFBE00BFDDAA000871A9000849
S3150800B280CF07002010B5064A0021402005F086F9B0
S3150800B2900022BDE81040034B03491046FDF7EABEFD
S3150800B2A0DDAA00087BA90008BD07002008B5FCF741
S3150800B2B0B3FF214A0021042005F070F91F4B2049ED
S3150800B2C001220020FDF7D6FE01461E4806F0AEF81C
S3150800B2D01D4A0021082005F061F91C4B1C49012272
S3150800B2E00020FDF7C7FE01461A4806F09FF81A4ADD
S3150800B2F00021102005F052F9184A0021202005F0F7
S3150800B3004DF9174B174901220020FDF7B3FE164BDE
S3150800B310164901220020FDF7ADFEFFF7B3FFFFF740
S3150800B3209BFF134806F0E8F8124806F0E5F8BDE872
S3150800B3300840FFF72DBD00BF85A90008A5A800088D
S3150800B340C3070020DA5401086DAA0008D5A800082A
S3150800B350D2070020EE5401082DAB0008BDAB00084B
S3150800B36041A90008C207002011A90008D10700203A
S3150800B37045000020015501081FB54378FF2B0446F8
S3150800B3800AD1B0F8033040F60142934206D040F69F
S3150800B3901442934200F08F80002418E05B4AB0F80C
S3150800B3A00730D18802318B4214D1447B1CB1012C61
S3150800B3B008D001240BE002238DF800306846FFF719
S3150800B3C03BFDF6E78DF800406846FFF735FD204659
S3150800B3D004B010BD918902318B4209D1447B2CB14E
S3150800B3E0012CE6D105238DF80030EDE70623E3E7C7
S3150800B3F0D18902318B4207D1447B1CB1012CD8D1AB
S3150800B4000723F0E70823D7E7518A02318B4207D191
S3150800B410447B1CB1012CCCD10923E4E70A23CBE7F2
S3150800B420918A02318B4207D1447B1CB1012CC0D1D1
S3150800B4300B23D8E70C23BFE7118B02318B4207D1C8
S3150800B440447B1CB1012CB4D10E23CCE70F23B3E700
S3150800B450118C02318B4207D1447B1CB1012CA8D137
S3150800B4601323C0E71423A7E7518C02318B4207D177
S3150800B470447B1CB1012C9CD11523B4E716239BE70A
S3150800B480518901318B4209D104238DF80030B4F873
S3150800B4900B308DF808300D3401948FE7D18A0131CD
S3150800B4A08B4201D10D23F0E7D28B013293427FF410
S3150800B4B073AF1223E9E7154AB0F80730518801310E
S3150800B4C08B420AD1002368468DF80030FFF7B4FC9A
S3150800B4D0B4F8050004F02AFA6BE7118901318B42AA
S3150800B4E001D10323EFE7918B01318B4201D1102360
S3150800B4F0E9E7D18B01318B4201D11123E3E7928C25
S3150800B500013293427FF448AF1723DCE7F0080020A6
S3150800B5102DE9F04FC548C64DDFF8BC83DFF8BC936C
S3150800B520DFF8BCA3DFF8BCB38BB004F08DFDC14ACD
S3150800B530C14BC2490095CDE9062341F60F03CDE973
S3150800B5400813012206A90323022004F011F9BC4BB3
S3150800B550BC4ABD49CDE9063242F61923CDE908139E
S3150800B5602B460024102604274FF0070C33F8020B4D
S3150800B5700593CDE9017CCDE903640227B34B009717
S3150800B5800DF1180C624639461B7804F041F9DFF8CC
S3150800B59058E3AF4BCDE906E3A3F15263A3F56E2357
S3150800B5A0A3F634430893AB4B099306A82B1D0093C7
S3150800B5B001460E230122384604F0DAF8A64BCDE9F7
S3150800B5C00683A64BDFF82483CDE90893AB1DCDE9A6
S3150800B5D00443CDE90246CDE90064A14BDFF8109398
S3150800B5E01B7806A802463946A88804F011F99D4B2F
S3150800B5F00396CDE906A39C4B0097CDE908B3042032
S3150800B60005F10803CDE90443CDE90140974BDFF87E
S3150800B610E4A21B7806A802463946A88804F0F8F87A
S3150800B620934A944B94490396CDE90623934B4FF0DE
S3150800B630010BCDE9081305F10A03CDE90443CDE969
S3150800B640014B04208E4B009006A8024639461B780B
S3150800B650A88804F0DDF88B488B4BDFF89CC2CDE94F
S3150800B66006038A4BCDE908C305F10C03CDE904B3FB
S3150800B670CDE90246CDE90064854B06A8024639465F
S3150800B6801B78A88804F0C4F8824B069303F13E435E
S3150800B69003F56A0303F6FE43079303F10453A3F580
S3150800B6A05903A3F69E3308937B4B099305F10E03C2
S3150800B6B0CDE90443CDE90246CDE90064774B06A8F7
S3150800B6C0024639461B78A88804F0A2F8744B06A8E7
S3150800B6D0CDE90883AB1900935A4601460C23384630
S3150800B6E0CDE906A904F044F86E4B099305F1120357
S3150800B6F0CDE90443CDE90246CDE900646A4BCDF8AD
S3150800B700208006A8024639461B78288ACDE906A96C
S3150800B71004F07EF8654B099305F11403CDE904B3EB
S3150800B720CDE90246CDE90064614BCDF8208006A834
S3150800B730024639461B78288ACDE906A904F068F836
S3150800B7403F4B404A40490194CDE906324FF6116312
S3150800B750CDE9081305F11603CDE90443CDE902B690
S3150800B76004230093534B288A1B7806AA394604F00B
S3150800B7704FF8514B099305F11803CDE90443CDE978
S3150800B7800246CDE900644D4B288A1B78CDF8208007
S3150800B79006AA3946CDE906A904F03AF8484B0993B2
S3150800B7A005F11A0300935A4606A90D233846CDE932
S3150800B7B006A9CDF8208003F0DBFF424B099305F17B
S3150800B7C01C03CDE904430423CDE901433E4B03960C
S3150800B7D0009706AA39461B78688BCDF82080CDE9F4
S3150800B7E006A904F015F8394B099305F11E03CDE9AE
S3150800B7F004430523CDE9014306230093344B0396FE
S3150800B80006AA39461B78688BCDF82080CDE906A9AB
S3150800B81003F0FEFF2F4B099305F12003CDE90443FE
S3150800B820CDE90246CDE9006468E000BF79B30008B7
S3150800B830F00800208FE5B3D52E7F4A982A487ACC9F
S3150800B84019ED82AEED214C9D4145228E6A000020FD
S3150800B8508B30D1A01232C861F47CD88F22C30A3A41
S3150800B860680000207A82038CE28CBA5A64000020B1
S3150800B8708CDFA8C408B4DFA9B8434507C14B240A1E
S3150800B8806E00002063BFD443058B1D8BC1E772D5BC
S3150800B89069000020B34D5BFA07481A5A6D0000206C
S3150800B8A0565B59FE305E59FE72000020845F59FED1
S3150800B8B0710000206B0000206A8859FE660000208F
S3150800B8C0C27159FEC67259FE65000020247459FEDD
S3150800B8D070000020327559FE53D5DA4860459B2121
S3150800B8E0D0463A9A044B736A3D92B499EE11B82F32
S3150800B8F0420256BE020012ACA444166A1C4B688B60
S3150800B9001B78CDF8208006AA3946CDE906A903F0AA
S3150800B9107FFF184B099305F12203CDE90443CDE9CE
S3150800B9200246CDE90064144B688B1B78CDF820805D
S3150800B93006AA3946CDE906A903F06AFF42F6282386
S3150800B940ADF8183005F12403CDE904434FF0070E8E
S3150800B9500423CDE9013E094B039600971B78688BB3
S3150800B96006AA594603F054FF0BB0BDE8F08F00BF96
S3150800B97067000020847859FE6C0000206F000020C4
S3150800B98007B50E287AD8DFE800F008141C232A31F8
S3150800B9903840474E555D646B72003948394B009103
S3150800B9A041881B780088002203F08EFF03B05DF8FB
S3150800B9B004FB3348344B00911B78C18800228088E9
S3150800B9C0F2E72F48314B00911B7801890022F6E7F0
S3150800B9D02B482F4B00911B7841890022EFE7284816
S3150800B9E02C4B00911B7881890022E8E724482A4BD2
S3150800B9F000911B78C1890022E1E72148274B009175
S3150800BA001B78418A0022008ACEE71D48244B009104
S3150800BA101B78818A0022F6E71948224B00911B7889
S3150800BA20C18A0022EFE716481F4B00911B78018B4D
S3150800BA300022E8E712481D4B00911B78818B0022F3
S3150800BA40408BB1E70E481A4B00911B78C18B002238
S3150800BA50F6E70B48174B00911B78018C0022EFE79D
S3150800BA600748154B00911B78418C0022E8E70448EB
S3150800BA70124B00911B78818C0022E1E7922095E712
S3150800BA80F00800206A0000206800002064000020FA
S3150800BA906E000020690000206D0000207200002062
S3150800BAA0710000206B000020660000206500002061
S3150800BAB070000020670000206C0000206F00002046
S3150800BAC04FF0B04382B0D3F8502142F48012C3F845
S3150800BAD05021D3F8503103F480130193019B0A4B8C
S3150800BAE01A6A42F400721A62D3F8D42042F4007239
S3150800BAF0C3F8D42040BF20BF044AD36843F40043A8
S3150800BB00D36002B0704700BF000800580004005810
S3150800BB104FF0B04307B51A6D42F480121A651B6DD3
S3150800BB2003F480130193019B084B1A6842F0010243
S3150800BB301A601A6842F480321A602C2000F056FE09
S3150800BB402D2003B05DF804EB00F050BE000C005841
S3150800BB50024A536823F0010353607047000C0058EB
S3150800BB60024B4FF480329A60704700BF000C0058B1
S3150800BB70024A536823F0020353607047000C0058CA
S3150800BB80044B4FF400329A605A6822F400325A6025
S3150800BB90704700BF000C005810B5164CE3689907AB
S3150800BBA009D463689A0306D4636843F40033636070
S3150800BBB004F030FB10BDE3681B070DD46368180357
S3150800BBC00AD4636843F4002363600B4B1B689847E9
S3150800BBD04FF40023A360EDE7064BDA689106E9D433
S3150800BBE05A689202E6D45A6842F400125A6004F07F
S3150800BBF0DFFADFE7000C00581809002010B5084CDA
S3150800BC00E3681B0706D5074B1860636823F400230F
S3150800BC10636010BD80474FF40023A360F9E700BFB7
S3150800BC20000C005818090020024A536823F008033C
S3150800BC3053607047000C005810B5104CE3699A071A
S3150800BC4007D563689B0704D404F0F0FA0223A360BF
S3150800BC5010BDE369D80706D56368D90703D404F08D
S3150800BC6091FA0123F3E7054CE3691A07F0D56368EF
S3150800BC701B07EDD404F030FB0823E8E7000C005856
S3150800BC80D458C4500433C4188C42F9D3704703609F
S3150800BC9004308842FBD370470C48854600F028F8E4
S3150800BCA00B480C490C4A0023FFF7EDFF0B480C49DB
S3150800BCB00023FFF7EEFF0B480B490023FFF7E9FFC8
S3150800BCC005F072FDFDF784FCFEE700000000032086
S3150800BCD008000020600200201C5A0108A802002063
S3150800BCE0840B0020E4010320670A0320FEE7000016
S3150800BCF0164AD2F8883043F47003C2F888304FF0F9
S3150800BD00B0436FF482701A6842F001021A604FF469
S3150800BD10E0229A601968A2F1A26202440A401A60F7
S3150800BD20D3F8942022F00502C3F89420D3F898207B
S3150800BD3022F00102C3F89820054ADA601A611A68E7
S3150800BD4022F480221A6000229A61704700ED00E012
S3150800BD500010042238B5104C237805460BB901208B
S3150800BD6038BD01F077FF22784FF47A73B3FBF2F30C
S3150800BD70B0FBF3F000F05AFD04460028EFD10F2D72
S3150800BD80EDD8024629464FF0FF3000F0FDFC034B84
S3150800BD9020461D60E4E700BF780000207C000020F4
S3150800BDA0094A136843F4807310B50320136000F042
S3150800BDB0D9FC0020FFF7CEFF044618B9FEF7DCFAD7
S3150800BDC0204610BD0124FBE700400058034A044BF7
S3150800BDD011681B780B441360704700BF1C090020CC
S3150800BDE078000020014B1868704700BF1C09002026
S3150800BDF0014B1868704700BF7C000020014B18787B
S3150800BE00704700BF7800002030B5CC0D04F004045C
S3150800BE101430C1F30451035907258D4023EA05035D
S3150800BE208A401343035130BD806800F00100704713
S3150800BE308068C0F38000704737B500230193044635
S3150800BE40002800F0C180456D25B9FCF79DFAA56567
S3150800BE5084F8505023689A68900041BF9A6822F087
S3150800BE60204222F03F029A609A68D10040F18B8006
S3150800BE709A68D20000F19E80626D42F010026265F7
S3150800BE80A26D42F00102A26501211846FFF7D0FF14
S3150800BE90626D02F01002104340F09280626D22F447
S3150800BEA0817242F0020262651846FFF7BDFF50B97B
S3150800BEB04648FFF7B9FF30B945486568826822F4F5
S3150800BEC07C122A438260E568626B94F820002A4354
S3150800BED0A5682A43657E012842EA453242EA0042BD
S3150800BEE002BF606A00F1FF3042EA4042A06A20B110
S3150800BEF0E56A00F4707028430243DD683548284037
S3150800BF001043D8601846FFF793FF9A6802F00802B4
S3150800BF10104320D1D86894F83020257E520020F4AA
S3150800BF20804042EA853220F002000243DA6094F843
S3150800BF303820012A40D1D4E90F25186920F4FF607A
S3150800BF4020F004002A430243606C0243A06C0243BB
S3150800BF5042F001021A612269012A05BF186BE269DB
S3150800BF601A6B02F1FF3206BF20F00F00024322F0DF
S3150800BF700F021A63636D23F0030343F0010363653D
S3150800BF80084603B030BD9A68134922F0104222F0E1
S3150800BF903F0242F080529A60104A1268B2FBF1F2F0
S3150800BFA0013252000192019A002A3FF461AF019AC8
S3150800BFB0013AF7E7002168E71A6922F00102C9E7A2
S3150800BFC0636D43F0100363650121D9E7000004504F
S3150800BFD00003045007C0F0FF400D03007400002062
S3150800BFE07047704708B5806AFFF7FBFF08BD7047C2
S3150800BFF0836A5A6D12F0500F10B55A6D21D142F46A
S3150800C00000725A651A681168080716D5D16811F4BE
S3150800C010406F0ED1D26812F4005F0AD15A6D22F42D
S3150800C02080725A655A6DD1045EBF5A6D42F001029C
S3150800C0305A651846FFF7D4FF10BDD26812F0020FF2
S3150800C040EBE7D20603D51846FFF7D1FFF4E7DB6C1A
S3150800C050BDE810405B6B1847806A08B5436D43F02E
S3150800C06040034365836D43F004038365FFF7BFFF11
S3150800C07008BD0000F7B50023019390F85030012B56
S3150800C08005460E4600F085810468012380F8503085
S3150800C0902046FFF7CDFE002840F075814A683368D0
S3150800C0A0910901F00C0104F1300702F01F027858DB
S3150800C0B04FF01F0CC3F3846393400CFA02F220EA94
S3150800C0C0020213437B502046FFF7B2FEA36803F033
S3150800C0D00803184320D1B26831682046FFF794FE5A
S3150800C0E030697769E1683368042804F160021ED074
S3150800C0F052F820E0DFF8C8C2C1F3C10103F0F843E3
S3150800C1000EEA0C0C490043EA0C0307FA01F10B434B
S3150800C11043F0004342F820302046FFF785FE00280A
S3150800C1205AD00020002385F8503003B0F0BD216EA8
S3150800C130216EC3F31200C1F38461002838D1C3F31A
S3150800C1408463994202BF236E23F000432366536833
S3150800C15033685168C3F31200C1F3846168BBC3F343
S3150800C1608463994202BF536823F00043536093687F
S3150800C17033689168C3F31200C1F3846110BBC3F33B
S3150800C1808463994202BF936823F000439360D3689F
S3150800C1903368D168C3F31200C1F38461B8B9C3F335
S3150800C1A08463994202BFD36823F00043D360B3E7A0
S3150800C1B093FAA3F3B3FA83F3C3E793FAA3F3B3FAB1
S3150800C1C083F3CEE793FAA3F3B3FA83F3D9E793FAA3
S3150800C1D0A3F3B3FA83F3E4E7F76833686E4AD4F84F
S3150800C1E0B01007F0180CC3F3120022FA0CF21A402A
S3150800C1F021EA00010A43C4F8B020684A97421CD1D4
S3150800C20000284AD19A0E013202F01F070121920630
S3150800C210092F02F0F84201FA07F170D811430028F5
S3150800C22057D19B0E013303F01F0303EB43031B0592
S3150800C230B26819432046FFF7E7FD3768584B1F4297
S3150800C2403FF46FAF5749584A08469368FFF7ECFD25
S3150800C250002840F092805548874203F0E07668D17E
S3150800C2601B023FF55EAF8C427FF45BAF936823F009
S3150800C270E073334343F4000393604D4B1A684D4B08
S3150800C280B2FBF3F20C2302FB03330193019B002B51
S3150800C2903FF447AF019B013BF7E793FAA3F232B1AC
S3150800C2A0B2FA82F2013202F01F02092A16D893FA6C
S3150800C2B0A3F2B2FA82F20132920602F0F84293FA37
S3150800C2C0A3F7B7FA87F7013707F01F070121B94027
S3150800C2D0A4E793FAA3F3B3FA83F3A3E793FAA3F2D3
S3150800C2E0B2FA82F20132920602F0F84293FAA3F702
S3150800C2F0B7FA87F7013707F01F070121B94011433D
S3150800C30050B99B0E013303F01F0303EB43031E3B97
S3150800C3101B0543F000738BE793FAA3F2B2FA82F295
S3150800C320013202F01F0203236FF01D0013FB020304
S3150800C330EEE7214887420ED113F080707FF4F1AE04
S3150800C3408C427FF4EEAE936823F0E073334343F0F8
S3150800C35080739360E6E6194887427FF4E2AE13F4E9
S3150800C36080007FF4DEAE8C427FF4DBAE936823F068
S3150800C370E073334343F48003EBE76B6D43F020032C
S3150800C3806B650120CEE66A6D42F020026A651846A2
S3150800C390C8E60220C9E600BFFFFF070000007F408D
S3150800C3A0000008800000045000030450000052C733
S3150800C3B074000020400D0300000084CB01000080BB
S3150800C3C000F0FF03036870B504461846FFF730FD12
S3150800C3D09A6802F00802104301D1002070BDDA689D
S3150800C3E090012AD5208B40F20112904225D1274A86
S3150800C3F01968490615D540221A6001211846FFF723
S3150800C40017FD50B19A68960707D49A6822F0004239
S3150800C41022F03F0242F010029A6001290FD104254A
S3150800C42021E0013AE4D1636D43F010036365A36D1F
S3150800C43043F00103A3650120D0E70229DED19A68FB
S3150800C44010070AD59A68920707D49A6822F000421C
S3150800C45022F03F0242F020029A60022914D00329F2
S3150800C46014BF04250C25FFF7BDFC064623689B6808
S3150800C4702B42B2D0FFF7B6FC801B0528F6D92368F5
S3150800C4809B682B42F2D0CEE70825ECE7010040A3D3
S3150800C49073B502680446002310460193FFF7C4FCEF
S3150800C4A010B1002002B070BD91681E4B194209D028
S3150800C4B0636D43F010036365A36D43F00103A36541
S3150800C4C00120EFE7936823F0004323F03F0343F08E
S3150800C4D001039360144B9B681A0216D4FFF782FC7B
S3150800C4E0124E054622681368DB07DAD41046FFF7B2
S3150800C4F09BFC20B99368334043F001039360FFF730
S3150800C50071FC401B0228EDD9D2E7094B094A1B6882
