S0110000415153545F526576472E7372656307
S315080070000000032049D8000887CB00088DCB00086C
S3150800701093CB000899CB00089FCB0008000000001E
S31508007020000000000000000000000000A5CB0008DA
S31508007030B3CB000800000000C1CB0008CFCB000886
S315080070409DD800089DD80008DDCB0008F1CB0008C4
S315080070509DD800089DD80008FDCB00089DD80008DB
S315080070609DD800089DD800089DD800080DCC0008BA
S315080070709DD800089DD800089DD800089DD800080E
S315080070809DD800089DD800089DD800089DD80008FE
S315080070909DD800089DD800089DD8000821CC000876
S315080070A09DD800089DD800089DD800089DD80008DE
S315080070B09DD800089DD800089DD800089DD80008CE
S315080070C09DD800089DD800089DD800089DD80008BE
S315080070D09DD800089DD800089DD800089DD80008AE
S315080070E02FCC00089DD800089DD800089DD8000818
S315080070F03FCC00084BCC000857CC00089DD80008A8
S315080071009DD800089DD8000865CC00089DD80008C1
S315080071109DD800089DD800089DD800089DD800086D
S315080071209DD800089DD800089DD800089DD800085D
S311080071309DD800089DD800089DD80008CE
S30908007140B01902086A
S3150800715010B5054C237833B9044B13B10448AFF383
S3150800716000800123237010BD1C03002000000000CE
S315080071706C09020808B5034B1BB103490348AFF372
S31508007180008008BD00000000200300206C090208EA
S3150800719030B403460D480E4D5862012000220D4CAE
S315080071A083F83C000C491D6200204FF07E55DD62D5
S315080071B05C6399631A605A609A601A615A619A61A7
S315080071C0DA619A621A63D86030BC704727A0093C16
S315080071D00000C8438FC2F53C9B201A3F30B40346D3
S315080071E00D480E4D5862012000220D4C83F83C00D4
S315080071F00C491D6200204FF07E55DD625C63996381
S315080072001A605A609A601A615A619A61DA619A62DA
S315080072101A63D86030BC704727A0093C0000C843F1
S315080072208FC2F53C9B201A3F70B5C368012B2DED24
S31508007230048B0446B0EE408AF0EE608A0D4640F2B2
S315080072407B810A2B40F27B81282B40F29881B3F58B
S31508007250707F40F29881B3F5F06F40F299819FED07
S31508007260DC7AD4ED0A7A78EE676AE6EE877AC4EDB8
S315080072700A7AC7EE887A17EE900A01F075FB41EC98
S31508007280100B18F005F851EC100B01F0BDFEDFED00
S31508007290D16AD4ED0C7A9FEDD06A07EE100A87EE14
S315080072A0267AF0EE006A37EE677AE7EE067AC4EDDC
S315080072B00C7A77EEA67A17EE900A01F055FB9FED49
S315080072C0BE0B41EC110B18F021F851EC100B01F034
S315080072D09BFE07EE900ADFEDC16A9FEDC17AB1EE1B
S315080072E0676AC6EE267AF4EEC77AF1EE10FA0EDD74
S315080072F09FEDBC7AF4EEC77AF1EE10FA00F3088136
S3150800730017EE900A01F030FB41EC100B01E09FEDFF
S31508007310AC0B17F075FF51EC100B01F075FED4EDB0
S315080073200D7AD4ED0C6ADFEDB05A9FEDB06AD4ED54
S315080073300E9AB0EE677A96EEA67A05EE100AF0EE89
S31508007340476AB7EE007AE6EEA57A37EE457AC4EDD7
S315080073500D7A27EE067A17EE900A84ED0B7A01F07D
S3150800736003FB41EC100B18F041F894ED0E7AF3EE9E
S31508007370047A87EE279A51EC100B01F045FE07EECA
S31508007380900AF4EEC97AF1EE10FA00F3C780C9EE56
S31508007390897A94ED0C7A9FED939A67EE877AF4EEE4
S315080073A0C97AF1EE10FA4AD5DFED8D9AF4EEE97A4C
S315080073B0F1EE10FA00F1AF80F1EE677A17EE900A57
S315080073C001F0D2FA41EC100B17F01AFF51EC100B32
S315080073D001F01AFE07EE100AF7EE007A37EE276A72
S315080073E0B0EE007AC7EE866AE6EE877A17EE900A5E
S315080073F001F0BAFA9FED700B41EC110B17F086FFFE
S3150800740051EC100B01F000FE07EE900A9FED737A1F
S31508007410F1EE676AC6EE877AF4EEE97AF1EE10FACB
S3150800742000F3BB80E368DFED727AC5ED108A0A2B9C
S31508007430C5ED167A51D8BDEC048B012070BD9FEDC1
S31508007440600B17F0DDFE51EC100B01F0DDFD07EEC9
S31508007450100AF7EE007A37EE276AB0EE007AC7EE22
S31508007460866AE6EE877A17EE900A01F07DFA9FEDB6
S31508007470520B41EC110B17F049FF51EC100B01F0C0
S31508007480C3FD07EE900A9FED557AF1EE676AC6EEE0
S31508007490877A17EE900A01F067FA41EC100B17F09D
S315080074A0AFFE51EC100B01F0AFFD07EE100AF7EE38
S315080074B0007A77EEC77ADFED4D6A9FED4D7A67EE73
S315080074C0A67AF4EEC77AF1EE10FAABDCE368C5EDFE
S315080074D0167A0A2BC5ED108AADD9DFED467AB4EED9
S315080074E0E78AF1EE10FA61D4DFED437AB4EEE78A63
S315080074F0F1EE10FA5ADCDFED417AF4EEE78AF1EEA6
S3150800750010FACCBF6FF065000020BDEC048B70BD8F
S315080075109FED2D0BFDE69FED2C0B92E7606B01F0BE
S3150800752023FA41EC100B17F061FF51EC100B01F038
S315080075306BFD09EE100A2AE7B7EE007A91E60A21F2
S31508007540012204262E4802F18042013A00EB82020B
S315080075503044566992ED007AD0ED006A891B07EE31
S31508007560901A76EEC76AF8EE677A9B1B86EEA76ACC
S3150800757007EE903AF8EE677AA6EE277A71E62821A2
S3150800758008260222DEE74FF470710C260322D9E79B
S315080075904FF4F06110260422D4E7F4EEC97AF1EE2E
S315080075A010FA7FF776AF9FED080B78E76FF0650066
S315080075B0ABE700BFAFF300800000000000002440E6
S315080075C000000000008054C0000000000080544005
S315080075D03176883A3333333F2841733FD1476D4478
S315080075E00000A4C20000A4422664083B00007A44B6
S315080075F00000FA4300007A43F902155086387642AD
S31508007600A8120208F8B5DFEDF67AB4EEE72AF1EE2D
S3150800761010FA2DED068B04460E46B0EE409AF0EEB3
S3150800762061AA17461D4640F3F582DFEDEE7AB4EE01
S31508007630E72AF1EE10FAF0EE428A40F1EB82DFED2E
S31508007640EA7AC5ED118AF4EEE78AF1EE10FA00F34C
S31508007650F282F5EEC08AF1EE10FA40F38283E3680F
S31508007660012B40F2EE82F5EEC0AAF1EE10FA40F3D5
S31508007670F182DFEDDD7AF4EE67AAF1EE10FAC8BF03
S31508007680F0EE67AA306801F06FF941EC100B17F0BD
S31508007690FFFD51EC100B01F0B7FC09EE900A70687B
S315080076A001F062F941EC100B17F0F2FD51EC100BEA
S315080076B001F0AAFC07EE900A87EEA96ADFEDCB6A0D
S315080076C0DFEDCB7A9FEDCB7AE6EE667AF4EEC77AF3
S315080076D0F1EE10FA40F1C1829FEDC77AF4EEC77A4F
S315080076E0F1EE10FA00F15083F1EE677A17EE900A80
S315080076F001F03AF941EC100B17F082FD51EC100B32
S3150800770001F082FC07EE100AF7EE007A37EE276AD8
S315080077109FEDBAAA9FEDBA7AC7EE866AA6EEC7AA01
S31508007720B4EEE7AAF1EE10FA00F3AD82B0EE67AA5E
S31508007730D4ED007AF4EEE97AF1EE10FA00F2B482AA
S31508007740C4ED009AC4ED01AAC4ED028AF0EE697A86
S3150800775077EEE99ADFEDAB7AF4EEE79AF1EE10FAF6
S3150800776040F3D880D4ED011A94ED022A71EEEAAA04
S3150800777072EE688AF5EEC0AAF1EE10FA00F15383AC
S315080077809FEDBC7AF0EE697AF5EEC08AF1EE10FA52
S3150800779048BF9FED9D7ADFED9D6A48BF28EEC77A00
S315080077A077EEC77A9FED937A77EEE67AF2EE046A79
S315080077B067EEA67AF4EEC77AF1EE10FA00F1D482F3
S315080077C09FED830B17F01CFD51EC100B01F01CFC10
S315080077D007EE100AF7EE007A77EE276AF5EEC0AAEA
S315080077E087EEA67A9FED8A8AF2EE047AF1EE10FA0F
S315080077F0A7EE278ACBBFF0EE087AF8EE087A7AEE7B
S31508007800E7AA77EEEAAADFED7B7AF1EE6AAAF4EE4A
S31508007810E7AAF1EE10FA40F1F882DFED777AF4EE96
S31508007820E7AAF1EE10FA00F11283F1EE6A7A17EE82
S31508007830900A01F099F841EC100B17F0E1FC51ECB5
S31508007840100B01F0E1FB07EE100AF7EE007A37EEAF
S31508007850276AF5EEC08AC7EE866AF1EE10FACCBF43
S31508007860F0EE087AF8EE087A9FED6A7ADFED6AAAF2
S31508007870CCBF78EEE78A77EEE88AE6EE87AADFEDF0
S315080078805D7AF1EE688AF4EEE78AF1EE10FA6AEEAE
S315080078908AAA40F1B782DFED587AF4EEE78AF1EE6C
S315080078A010FA00F1D182F1EE687A17EE900A01F02B
S315080078B05BF841EC100B17F0A3FC51EC100B01F030
S315080078C0A3FB07EE100AF7EE007A37EE277ADFED0C
S315080078D0516A9FED51AA87EE876AB1EE047AA6EE41
S315080078E026AA2AEE2AAAB4EEC7AAF1EE10FA40F39F
S315080078F0928228EE078AF2EE047AB4EEE78AF1EE6F
S3150800790010FA00F38582DFED5A7AB4EEE78AF1EED3
S3150800791010FA01DC9FED568ADFED407A9FED407A3A
S3150800792069EEA77AF4EE477AF1EE10FAC8BFF0EEE0
S31508007930477A3B0638EE278A00F1FF81384600F081
S31508007940F1FF41EC110B9FED240B17F0DFFC51EC16
S31508007950100B01F059FB07EE900A27EE888AF2EE23
S31508007960047AB4EE678AF1EE10FA94ED097A9FED7F
S315080079702D6ADFED3F6AC8BFB0EE678A78EE477AB0
S31508007980A7EE867AB4EEE67AF1EE10FACDBFDFED11
S31508007990377ADFED257AB0EE667A67EE277A84EDD8
S315080079A0097AF7EE006AF4EEE67AF1EE10FA85ED5A
S315080079B0147AC5ED137A00F1928177EEE67A9FED97
S315080079C01BAAF0EE088AB7EE047A55E0AFF30080FA
S315080079D000000000008054C0000000E07EAEF03FCA
S315080079E000008CC3002474490000C84273F0464264
S315080079F0AA438E420000A4420000A4C2EC0A8141B8
S31508007A0036826E41CCBC8CAB0AD7A33C3333B33E2B
S31508007A109A9999BECDCC4C3FCDCC4C3EFA7EAA3E27
S31508007A20CDCCCC3DA7D2213F395E813CC343EB3F49
S31508007A307A06F83D7561B43EFFF0832E6BF5B73ACA
S31508007A40E64DE23D321BD32C0000C8435046504752
S31508007A5000409C4500007A43F90215508638764264
S31508007A60A306533B8D479B43EC51B840D7A3F03F41
S31508007A7027A0093C00000000F7EE009AF0EE696ABC
S31508007A80E7EE276A16EE900A00F06EFF41EC100B3F
S31508007A9017F0FEFB51EC100B01F0B6FA07EE100AD0
S31508007AA0F0EE687AE7EE0A7AF4EEE97AF1EE10FA81
S31508007AB040F33A81C5ED127A94F83C305FED157AB9
S31508007AC028EE278A002B40F01A8194ED045AD4ED4B
S31508007AD0055A1FED297A5FED294A5FED276AD4ED2D
S31508007AE0067A38EE454A38EE656AA4EE245AE6EE7A
S31508007AF0075A84ED045A35EE657AC4ED055A77EED1
S31508007B00666A76EEA76AF5EEC06AF1EE10FA40F3F9
S31508007B1076815FED377AF4EE676AF1EE10FAC8BF40
S31508007B20F0EE676A1FED3B6AD4ED077AC4ED066A84
S31508007B3037EE066A36EE276AB5EEC06AF1EE10FA37
S31508007B4040F353811FED356A5FED437A84ED076A8A
S31508007B50B4EEE77AF1EE10FAD4ED084A07DC5FEDE9
S31508007B60477AF4EEE76AF1EE10FA40F310815FED1A
S31508007B703F7A5FED4B6A1FED4B7A1FED4B6AF0EECD
S31508007B80665AE8EE075A77EEA47AF4EEC65AF1EE8C
S31508007B9010FAB0EE657AF4EEE67A00F3C880F1EEF4
S31508007BA010FAD8BFF0EE667AB4EEE77AF1EE10FA7C
S31508007BB058BFB0EE677A84ED087AE3682068616892
S31508007BC0A268EA630A2B85ED157A6863A96385EDD1
S31508007BD0109A40F2A080D6ED007A1FED627AF4EE94
S31508007BE0C77AF1EE10FA00F161811FED657AF4EEBD
S31508007BF0C77AF1EE10FA00F359815FED687AB4EEB0
S31508007C00E79AF1EE10FACCBF6FF065000020BDECE4
S31508007C10068BF8BDC9EE206A1FED6F7A5FED6F7AA5
S31508007C201FED6F2AC6EE878A78EEE78A78EE818A94
S31508007C3078EEC28A03E5E368012BF0EE678A3FF621
S31508007C4012AD94ED097A5FED777A1FED778A67EEC4
S31508007C50277AA6E65FED79AA14E59FED9F0B17F044
S31508007C60CFFA51EC100B01F0CFF907EE100AF7EE38
S31508007C70007A37EE276A9FED9CAA9FED9C7AC7EE9D
S31508007C80866AA6EEC7AAF1EE047AB4EE67AAF1EE02
S31508007C9010FAC8BFB0EE67AAD4ED007AF4EEE97A16
S31508007CA0F1EE10FA7FF64CADE368012B40F2D58071
S31508007CB00A2B40F2D580282B40F2FB80B3F5707F63
S31508007CC040F2FC80B3F5F06F40F2FE809FED887AB3
S31508007CD079EEE76AE6EE877AC4ED007A38E59FED35
S31508007CE0857AF4EEC77AF1EE10FA18D477EEC77AE9
S31508007CF0F0EE008A9FED807A9FED80AABCE69FEDA4
S31508007D00807A84ED048A002384ED058A84ED087A56
S31508007D1084F83C3051E7BDEC068B0120F8BDF5EE42
S31508007D20C07AF1EE10FA15D5F7EE007AC2E6F1EE52
S31508007D3010FA52DDB0EE467A36E707EE907AB8EEDC
S31508007D40E77ADFED707A77EE677A17EE900A00F039
S31508007D500BFEF6E5DFED6C8A9FED6C7A9FED6CAA5B
S31508007D608AE6DFED698A7AE49FED6A7AF4EEC77AE5
S31508007D70F1EE10FA65D4F1EE677A17EE900A00F084
S31508007D80F3FD41EC100B1DE59FED550B67E7DFEDA5
S31508007D90627AB4EEE77AF1EE10FA06DDDFED5F7A85
S31508007DA0B4EEE76AF1EE10FA1ADCDFED5D7AF4EE6E
S31508007DB0E75AF1EE10FA13DD85EE257ADFED507AF3
S31508007DC0DFED586AB7EE006A74EEE77A37EE467A60
S31508007DD027EE277A67EE267ACBE6B0EE667AEAE6EB
S31508007DE0DFED517A67EE277AC3E6DFED507AB4EE17
S31508007DF0E76AF1EE10FAD8BFB0EE676AA4E6DFEDDF
S31508007E00426A8FE69FED340B55E59FED330B14E57B
S31508007E10B0EE678A80E5B4EEE7AAF1EE10FAC8BFBD
S31508007E2028EE0A8A67E59FED427AF5EEC08AF0EEFB
S31508007E30697AF1EE10FAEAEE877A0BDD28EE877A90
S31508007E40A2E49FED270BBDE49FED250B33E59FEDDF
S31508007E50240BF2E49FED2C7A96E4B7EE007A37E726
S31508007E6001224FF0040C0A21324802F18042013AFD
S31508007E7000EB82026044D2F814C0D2ED006A90ED9D
S31508007E80006AA1EB0C0207EE102A36EE666AB8EE17
S31508007E90477AA3EB0C03C6EE075A07EE103AB8EE7C
S31508007EA0477AE5EE876AB0EE667A11E76FF0650005
S31508007EB0ADE628214FF0080C0222D5E74FF4707181
S31508007EC04FF00C0C0322CFE74FF4F0614FF0100C83
S31508007ED00422C9E7AFF3008000000000008054C008
S31508007EE00000000000805440EC0A814136826E4151
S31508007EF03176883A9A99993EC1CB2940305F0C4031
S31508007F000000C8430000804300000000BEBEE341F5
S31508007F1077AB02400000A4C26BF5B7BAB2779AB83D
S31508007F206F12833A6578F83C748E7C42E2A969BC84
S31508007F300AD7233CA81202082DE9F0412DED028B41
S31508007F400C4611682689B1F802C094F801E09046FB
S31508007F509CFA9CFC62891FFA8CFC624582B0074633
S31508007F601D4605D2664500F29982DFEDD86A01E022
S31508007F70DFEDD76AC5ED006A8B8860785BBA9BB27D
S31508007F809A4205D29E4200F26982DFEDD06A01E08C
S31508007F90DFEDCF6AC5ED016ACB8860785BBA9BB224
S31508007FA09A4205D29E4200F23982DFEDC86A01E0A4
S31508007FB0DFEDC76AC5ED026A0B8960785BBA9BB2CA
S31508007FC09A4205D29E4200F20982DFEDC06A01E0BC
S31508007FD0DFEDBF6AC5ED036A4B8960785BBA9BB271
S31508007FE09A4205D29E4200F2D881DFEDB86A01E0D6
S31508007FF0DFEDB76AC5ED046A8B8960785BBA9BB218
S315080080009A4205D29E4200F2A781DFEDB06A01E0EE
S31508008010DFEDAF6AC5ED056A4B8A60785BBA9BB23D
S31508008020934205D9B342C0F076819FEDA80A01E0D4
S315080080309FEDA70A85ED060A8B8A60785BBA9BB224
S315080080409A4205D29E4200F245819FEDA07A01E050
S315080080509FED9F7A85ED077ACB8A60785BBA9BB2EB
S315080080609A4205D29E4200F20881DFED986A01E045
S31508008070DFED976AC5ED086A0B8B60785BBA9BB231
S315080080809A4205D29E4200F2D780DFED906A01E05F
S31508008090DFED8F6AC5ED096A4B8B60785BBA9BB2D8
S315080080A09A4205D29E4200F2A680DFED886A01E078
S315080080B0DFED876AC5ED0A6A8B8B60785BBA9BB27F
S315080080C09A4204D29E4275D89FED806A01E09FEDE0
S315080080D0806A85ED0B6ACB8B60785BBA9BB29A4255
S315080080E004D29E4245D89FED796A01E09FED786AF1
S315080080F085ED0C6A8DED000ACDED016A0B889FEDC2
S315080081006F7A9FED6F8AFA685BBA9BB207EE903A70
S31508008110F8EEE77A531CA7EE878A1CBF0132FA608D
S315080081202946F0EE480A3846FFF77EF8B4F80330D9
S31508008130DFED640AA179226998ED022A9279D8EDD1
S31508008140011A5BBA9BB207EE903AF8EEE77A01EEAF
S31508008150101AC7EEA00A2B4638466946B0EE480AFA
S31508008160BBEEEF1AFFF74EFA02B0BDEC028BBDE884
S31508008170F08107EE900A9A1AB8EEE77A9FED526AEE
S31508008180DFED525A07EE902A27EE067AF8EEE77ADE
S31508008190F61A67EE277A07EE106AB8EEC77A87EE00
S315080081A0876AB4EEE56AF1EE10FA40F3F381B0EEB1
S315080081B0656A9DE707EE900A981A9FED436ADFED18
S315080081C0435AF8EEE77A07EE100A67EE867AB8EEB3
S315080081D0C77AF31A27EE877A07EE903AF8EEE77A27
S315080081E087EE276AB4EEE56AF1EE10FA40F3DC8111
S315080081F0B0EE656A6DE707EE900A981ADFED326A07
S315080082009FED326AF8EEE77A07EE100A67EEA67A6D
S31508008210B8EEC77AF31A27EE877A07EE903AF8EEA1
S31508008220E77AC7EE276AF4EEC66AF1EE10FA40F36B
S31508008230C581F0EE466A3DE707EE900A981ADFED2B
S31508008240226A9FED226AF8EEE77A07EE100A67EED1
S31508008250A67AB8EEC77AF31A27EE877A07EE903A27
S31508008260F8EEE77AC7EE276AF4EEC66AF1EE10FA78
S3150800827040F3AE81F0EE466A0CE707EE900A981ACC
S31508008280DFED116A9FED116AF8EEE77A07EE100A3C
S3150800829067EEA67AB8EEC77AF31A27EE877A07EE5C
S315080082A0903AF8EEE77AC7EE276AF4EEC66AF1EE78
S315080082B010FA40F34781F0EE466ADBE64617BF3A06
S315080082C0A38B7E410AD7234400007A44A5D4685379
S315080082D00000C84207EE900A981A1FED057A1FEDAE
S315080082E0056AF8EEE77A06EE900A67EE877AF8EE00
S315080082F0E66AF31A66EEA76A07EE903AF8EEE77AA8
S3150800830086EEA77AB4EEC67AF1EE10FA40F3248127
S31508008310B0EE467A9EE607EE900A981AF8EEE77AE5
S315080083201FED176A5FED176A07EE100A67EE867A81
S31508008330B8EEC77AF31A27EE877A07EE903AF8EE80
S31508008340E77A87EE270AB4EEE60AF1EE10FA40F36A
S315080083500D81B0EE660A6DE607EE900A981A5FED93
S31508008360266A1FED266AF8EEE77A07EE100A67EE28
S31508008370A67AB8EEC77AF31A27EE877A07EE903A06
S31508008380F8EEE77AC7EE276AF4EEC66AF1EE10FA57
S3150800839040F3F680F0EE466A3CE607EE900A981A35
S315080083A05FED376A1FED376AF8EEE77A07EE100ACF
S315080083B067EEA67AB8EEC77AF31A27EE877A07EE3B
S315080083C0903AF8EEE77AC7EE276AF4EEC66AF1EE57
S315080083D010FA40F38F80F0EE466A0BE607EE900A35
S315080083E0981A5FED476A1FED476AF8EEE77A07EED7
S315080083F0100A67EEA67AB8EEC77AF31A27EE877AD6
S3150800840007EE903AF8EEE77AC7EE276AF4EEC66A00
S31508008410F1EE10FA78DDF0EE466ADBE507EE900A33
S31508008420981A5FED576A1FED576AF8EEE77A07EE76
S31508008430100A67EEA67AB8EEC77AF31A27EE877A95
S3150800844007EE903AF8EEE77AC7EE276AF4EEC66AC0
S31508008450F1EE10FA62DDF0EE466AABE507EE900A39
S31508008460981A5FED676A1FED676AF8EEE77A07EE16
S31508008470100A67EEA67AB8EEC77AF31A27EE877A55
S3150800848007EE903AF8EEE77AC7EE276AF4EEC66A80
S31508008490F1EE10FA4CDDF0EE466A7BE507EE90EA5F
S315080084A0ACEB02035FED786A1FED786AF8EEE77ABF
S315080084B007EE103A67EEA67AB8EEC77AA6EB0C0C6A
S315080084C027EE877A07EE90CAF8EEE77AC7EE276AAC
S315080084D0F4EEC66AF1EE10FA02DDF0EE466A49E5F8
S315080084E05FED857AF4EE676AF1EE10FA48BFF0EEB2
S315080084F0676A3FE55FED8A7AF4EE676AF1EE10FA8D
S3150800850048BFF0EE676A75E55FED8F7AF4EE676A45
S31508008510F1EE10FA48BFF0EE676A5BE55FED947A14
S31508008520F4EE676AF1EE10FA48BFF0EE676A41E5C5
S315080085305FED997AF4EE676AF1EE10FA48BFF0EE4D
S31508008540676A27E55FED9E7AF4EE676AF1EE10FA40
S3150800855048BFF0EE676A8DE55FEDA37AB4EE677AF9
S31508008560F1EE10FA48BFB0EE677A73E55FEDA87AC8
S31508008570B4EE670AF1EE10FA48BFB0EE670A59E59D
S315080085805FEDAD7AF4EE676AF1EE10FA48BFF0EEE9
S31508008590676A3FE55FEDB27AB4EE676AF1EE10FA04
S315080085A048BFB0EE676AA3E55FEDB77AB4EE676ACF
S315080085B0F1EE10FA48BFB0EE676A8AE55FEDBC7A5D
S315080085C0F4EE676AF1EE10FA48BFF0EE676A71E5F5
S315080085D05FEDC17AF4EE676AF1EE10FA48BFF0EE85
S315080085E0676A57E500000000000000000000000070
S315080085F001F0FF01102A2BDB10F0070F08D010F846
S31508008600013B013A8B422DD010F0070F42B3F6D149
S31508008610F0B441EA012141EA014122F007047FF062
S3150800862000070023F0E80256083C85EA010586EAB9
S31508008630010685FA47F5A3FA87F586FA47F6A5FAF5
S3150800864087F68EB9EED1F0BC01F0FF0102F0070201
S3150800865032B110F8013B013A83EA010313B1F8D1AC
S315080086600020704701387047002D06BF354603388D
S31508008670073815F0010F07D1013015F4807F02BFC6
S31508008680013015F4C03F0130F0BC0138704700BF17
S31508008690034613F8012B002AFBD1181A0138704734
S315080086A081F0004102E000BF83F0004330B54FEA95
S315080086B041044FEA430594EA050F08BF90EA020F02
S315080086C01FBF54EA000C55EA020C7FEA645C7FEA95
S315080086D0655C00F0E2804FEA5454D4EB5555B8BFB8
S315080086E06D420CDD2C4480EA020281EA030382EA29
S315080086F0000083EA010180EA020281EA0303362DBB
S3150800870088BF30BD11F0004F4FEA01314FF4801C8D
S315080087104CEA113102D0404261EB410113F0004F9F
S315080087204FEA03334CEA133302D0524263EB430356
S3150800873094EA050F00F0A780A4F10104D5F1200EF4
S315080087400DDB02FA0EFC22FA05F2801841F100014F
S3150800875003FA0EF2801843FA05F359410EE0A5F123
S3150800876020050EF1200E012A03FA0EFC28BF4CF054
S31508008770020C43FA05F3C01851EBE37101F000450A
S3150800878007D54FF0000EDCF1000C7EEB00006EEB17
S315080087900101B1F5801F1BD3B1F5001F0CD34908A1
S315080087A05FEA30004FEA3C0C04F101044FEA4452F8
S315080087B012F5800F80F09A80BCF1004F08BF5FEA7F
S315080087C0500C50F1000041EB045141EA050130BD5F
S315080087D05FEA4C0C404141EB0101013C28BFB1F571
S315080087E0801FE9D291F0000F04BF01460020B1FABC
S315080087F081F308BF2033A3F10B03B3F120020CDA8F
S315080088000C3208DD02F1140CC2F10C0201FA0CF06C
S3150800881021FA02F10CE002F11402D8BFC2F1200CD1
S3150800882001FA02F120FA0CFCDCBF41EA0C01904087
S31508008830E41AA2BF01EB0451294330BD6FEA0404D0
S315080088401F3C1CDA0C340EDC04F11404C4F12002BB
S3150800885020FA04F001FA02F340EA030021FA04F3CD
S3150800886045EA030130BDC4F10C04C4F1200220FA24
S3150800887002F001FA04F340EA0300294630BD21FA62
S3150800888004F0294630BD94F0000F83F4801306BF28
S3150800889081F480110134013D4EE77FEA645C18BF1C
S315080088A07FEA655C29D094EA050F08BF90EA020FB3
S315080088B005D054EA000C04BF1946104630BD91EAAB
S315080088C0030F1EBF0021002030BD5FEA545C05D1AE
S315080088D04000494128BF41F0004130BD14F58004ED
S315080088E03CBF01F5801130BD01F0004545F0FE4161
S315080088F041F470014FF0000030BD7FEA645C1ABF96
S31508008900194610467FEA655C1CBF0B46024650EACC
S31508008910013406BF52EA033591EA030F41F40021F8
S3150800892030BD00BF90F0000F04BF0021704730B57E
S315080089304FF4806404F132044FF000054FF0000153
S3150800894050E700BF90F0000F04BF0021704730B514
S315080089504FF4806404F1320410F0004548BF4042E9
S315080089604FF000013EE700BF42004FEAE2014FEA3E
S3150800897031014FEA02701FBF12F07F4393F07F4F19
S3150800898081F06051704732F07F4208BF704793F01C
S315080089907F4F04BF41F40021704730B54FF460742F
S315080089A001F0004521F000411CE700BF50EA010232
S315080089B008BF704730B54FF000050AE050EA0102DB
S315080089C008BF704730B511F0004502D5404261EB4B
S315080089D041014FF4806404F132045FEA915C3FF48C
S315080089E0D8AE4FF003025FEADC0C18BF03325FEA29
S315080089F0DC0C18BF033202EBDC02C2F1200300FADA
S31508008A0003FC20FA02F001FA03FE40EA0E0021FAFE
S31508008A1002F11444BDE600BF70B54FF0FF0C4CF4EC
S31508008A20E06C1CEA11541DBF1CEA135594EA0C0F9E
S31508008A3095EA0C0F00F0DEF82C4481EA030621EAD9
S31508008A404C5123EA4C5350EA013518BF52EA033514
S31508008A5041F4801143F4801338D0A0FB02CE4FF0C6
S31508008A600005E1FB02E506F00042E0FB03E54FF0F6
S31508008A700006E1FB03569CF0000F18BF4EF0010EEE
S31508008A80A4F1FF04B6F5007F64F5407404D25FEAEA
S31508008A904E0E6D4146EB060642EAC62141EA55519D
S31508008AA04FEAC52040EA5E504FEACE2EB4F1FD0CDF
S31508008AB088BFBCF5E06F1ED8BEF1004F08BF5FEA5D
S31508008AC0500E50F1000041EB045170BD06F000460F
S31508008AD046EA010140EA020081EA0301B4EB5C04BC
S31508008AE0C2BFD4EB0C0541EA045170BD41F48011B4
S31508008AF04FF0000E013C00F3AB8014F1360FDEBFD9
S31508008B00002001F0004170BDC4F10004203C35DAB4
S31508008B100C341BDC04F11404C4F1200500FA05F337
S31508008B2020FA04F001FA05F240EA020001F00042D8
S31508008B3021F0004110EBD37021FA04F642EB06014E
S31508008B405EEA430E08BF20EAD37070BDC4F10C0478
S31508008B50C4F1200500FA04F320FA05F001FA04F23C
S31508008B6040EA020001F0004110EBD37041F1000128
S31508008B705EEA430E08BF20EAD37070BDC4F1200533
S31508008B8000FA05F24EEA020E20FA04F301FA05F29B
S31508008B9043EA020321FA04F001F0004121FA04F243
S31508008BA020EA020000EBD3705EEA430E08BF20EA13
S31508008BB0D37070BD94F0000F0FD101F0004640004D
S31508008BC041EB010111F4801F08BF013CF7D041EACF
S31508008BD0060195F0000F18BF704703F000465200D3
S31508008BE043EB030313F4801F08BF013DF7D043EAA4
S31508008BF00603704794EA0C0F0CEA135518BF95EA5A
S31508008C000C0F0CD050EA410618BF52EA4306D1D1E0
S31508008C1081EA030101F000414FF0000070BD50EAFF
S31508008C20410606BF1046194652EA430619D094EA89
S31508008C300C0F02D150EA013613D195EA0C0F05D173
S31508008C4052EA03361CBF104619460AD181EA0301C7
S31508008C5001F0004141F0FE4141F470014FF000007F
S31508008C6070BD41F0FE4141F4780170BD70B54FF01A
S31508008C70FF0C4CF4E06C1CEA11541DBF1CEA13559A
S31508008C8094EA0C0F95EA0C0F00F0A7F8A4EB05047C
S31508008C9081EA030E52EA03354FEA013100F0888073
S31508008CA04FEA03334FF0805545EA131343EA12633C
S31508008CB04FEA022245EA111545EA10654FEA0026F1
S31508008CC00EF000419D4208BF964244F1FD0404F5AA
S31508008CD0407402D25B084FEA3202B61A65EB030506
S31508008CE05B084FEA32024FF480104FF4002CB6EBC3
S31508008CF0020E75EB030E22BFB61A754640EA0C0043
S31508008D005B084FEA3202B6EB020E75EB030E22BF82
S31508008D10B61A754640EA5C005B084FEA3202B6EBC3
S31508008D20020E75EB030E22BFB61A754640EA9C0082
S31508008D305B084FEA3202B6EB020E75EB030E22BF52
S31508008D40B61A754640EADC0055EA060E18D04FEA10
S31508008D50051545EA16754FEA06164FEAC30343EAB0
S31508008D6052734FEAC2025FEA1C1CC0D111F4801F7D
S31508008D700BD141EA00014FF000004FF0004CB6E776
S31508008D8011F4801F04BF01430020B4F1FD0C88BF15
S31508008D90BCF5E06F3FF6AFAEB5EB030C04BFB6EB20
S31508008DA0020C5FEA500C50F1000041EB045170BD13
S31508008DB00EF0004E4EEA113114EB5C04C2BFD4EB40
S31508008DC00C0541EA045170BD41F480114FF0000EC4
S31508008DD0013C90E645EA060E8DE60CEA135594EA40
S31508008DE00C0F08BF95EA0C0F3FF43BAF94EA0C0F43
S31508008DF00AD150EA01347FF434AF95EA0C0F7FF4B8
S31508008E0025AF104619462CE795EA0C0F06D152EA0B
S31508008E1003353FF4FDAE1046194622E750EA4106EF
S31508008E2018BF52EA43067FF4C5AE50EA41047FF400
S31508008E300DAF52EA43057FF4EBAE12E74FF0FF3C65
S31508008E4006E000BF4FF0010C02E000BF4FF0010C36
S31508008E504DF804CD4FEA410C7FEA6C5C4FEA430CAF
S31508008E6018BF7FEA6C5C1BD001B050EA410C0CBFFE
S31508008E7052EA430C91EA030F02BF90EA020F002060
S31508008E80704710F1000F91EA030F58BF994208BFC7
S31508008E9090422CBFD8176FEAE37040F00100704784
S31508008EA04FEA410C7FEA6C5C02D150EA013C07D1DB
S31508008EB04FEA430C7FEA6C5CD6D152EA033CD3D026
S31508008EC05DF8040B704700BF8446104662468C4620
S31508008ED01946634600E000BF01B5FFF7B7FF002853
S31508008EE048BF10F1000F01BD4DF808EDFFF7F4FF7C
S31508008EF00CBF012000205DF808FB00BF4DF808ED07
S31508008F00FFF7EAFF34BF012000205DF808FB00BF29
S31508008F104DF808EDFFF7E0FF94BF012000205DF84B
S31508008F2008FB00BF4DF808EDFFF7CEFF94BF012000
S31508008F3000205DF808FB00BF4DF808EDFFF7C4FFF9
S31508008F4034BF012000205DF808FB00BF4FEA410C42
S31508008F507FEA6C5C02D150EA013C0AD14FEA430C25
S31508008F607FEA6C5C02D152EA033C02D14FF0000062
S31508008F7070474FF0010070474FEA410212F50012A0
S31508008F8015D211D56FF47873B3EB625212D94FEA42
S31508008F90C12343F0004343EA505311F0004F23FA2C
S31508008FA002F018BF404270474FF00000704750EA81
S31508008FB0013005D111F0004008BF6FF0004070473E
S31508008FC04FF00000704700BF4A0011D212F5001298
S31508008FD011D20DD56FF47873B3EB62520ED44FEA03
S31508008FE0C12343F0004343EA505323FA02F0704783
S31508008FF04FF00000704750EA013002D14FF0FF30C1
S3150800900070474FF0000070474FEA4102B2F1E04363
S3150800901024BFB3F5001CDCF1FE5C0DD901F0004C51
S315080090204FEAC0024CEA5070B2F1004F40EB8300A1
S3150800903008BF20F00100704711F0804F21D113F1CD
S315080090403872BCBF01F00040704741F480114FEA06
S315080090505252C2F11802C2F1200C10FA0CF320FA8F
S3150800906002F018BF40F001004FEAC1234FEAD323AC
S3150800907003FA0CFC40EA0C0023FA02F34FEA430316
S31508009080CCE77FEA625307D150EA01331EBF4FF09F
S31508009090FE4040F44000704701F0004040F0FE40BA
S315080090A040F40000704700BF53B94AB9002908BF09
S315080090B000281CBF4FF0FF314FF0FF3000F0A6B973
S315080090C0ADF1080C6DE904CE00F03CF8DDF804E0DB
S315080090D0DDE9022304B0704738B5002200230446B0
S315080090E00D46FFF70BFF28B920462946BDE838404C
S315080090F000F00AB8204605F1004100F005F84042A4
S3150800910061EB410138BD00BFD0B50C4B00220646C5
S315080091100F46FFF781FCFFF757FF0446FFF702FCEF
S31508009120074B0022FFF778FC02460B4630463946C5
S31508009130FFF7BAFAFFF748FF2146D0BD0000F03D19
S315080091400000F0412DE9F047089E0D4604460F46FB
S31508009150002B4AD18A42944665D9B2FA82F343B1C2
S3150800916002FA03FCC3F120029F4020FA02F21743D9
S315080091709C404FEA1C4E1FFA8CF5B7FBFEF1220CF9
S315080091800EFB117742EA074201FB05F090420AD925
S315080091901CEB020201F1FF3780F01C81904240F27D
S315080091A0198102396244121AA4B2B2FBFEF00EFB10
S315080091B0102244EA024400FB05F5A5420AD91CEB35
S315080091C0040400F1FF3280F00781A54240F20481D1
S315080091D06444023840EA0140641B00211EB1DC40A9
S315080091E00023C6E90043BDE8F0878B4208D9002E64
S315080091F000F0ED800021C6E900050846BDE8F087C5
S31508009200B3FA83F1002949D1AB4202D3824200F274
S31508009210F880841A65EB030201201746002EE2D077
S31508009220C6E90047DFE702B9FFDEB2FA82F3002B90
S3150800923040F090808A1A4FEA1C471FFA8CFE0121DB
S31508009240B2FBF7F507FB1520220C42EA00420EFB9B
S3150800925005F0904208D91CEB020205F1FF3802D24C
S31508009260904200F2CB804546121AA4B2B2FBF7F040
S3150800927007FB102244EA02440EFB00FEA64508D965
S315080092801CEB040400F1FF3202D2A64500F2BB80B3
S315080092901046A4EB0E0440EA05409FE7C1F12007FB
S315080092A08B4022FA07FC4CEA030C05FA01F420FA73
S315080092B007F3FD404FEA1C492343B5FBF9F81FFAAB
S315080092C08CFE09FB18551C0C44EA054408FB0EF5F0
S315080092D0A54202FA01F200FA01F00BD91CEB0404CC
S315080092E008F1FF3A80F08880A54240F28580A8F10F
S315080092F002086444641B9DB2B4FBF9F309FB1344EA
S3150800930045EA044403FB0EFEA64508D91CEB0404F3
S3150800931003F1FF356CD2A6456AD9023B644443EA99
S315080093200843A3FB0295A4EB0E04AC42C846AE461E
S3150800933056D353D056B1B0EB080264EB0E0404FAC8
S3150800934007F7CA40CC401743C6E9007418460021FF
S31508009350BDE8F087C3F1200102FA03FC20FA01F206
S3150800936025FA01F19D402A434FEA1C471FFA8CFE55
S31508009370B1FBF7F007FB1015110C41EA054100FB9C
S315080093800EF58D4204FA03F408D91CEB010100F12D
S31508009390FF382FD28D422DD902386144491B92B22B
S315080093A0B1FBF7F507FB151142EA014205FB0EF181
S315080093B0914208D91CEB020205F1FF3816D29142F8
S315080093C014D9023D6244521A45EA004138E731464B
S315080093D0304608E73946E6E61046FBE64845A9D290
S315080093E0B9EB020865EB0C0E013BA3E74546EAE735
S315080093F02B4694E74046D1E7D0467BE7023D6244D8
S3150800940032E708460AE76444023842E7704700BF75
S3150800941090B589B004AF0446084611461A46234655
S31508009420FB710346BB710B467B7113463B71FB7997
S315080094309AB24FF0FF3302930123019307F10F030A
S31508009440009301230021134806F082FEFA7BBB79BC
S315080094501340DBB2FB737A793B7902FA03F35AB20B
S31508009460FB7B5BB213435BB2DBB2FB73FB799AB24D
S315080094704FF0FF3302930123019307F10F03009383
S3150800948001230021034806F04FFD00BF1437BD46EF
S3150800949090BD00BFFC05002080B500AF00239622D2
S315080094A000213C20FFF7B4FF072300221F210820D4
S315080094B0FFF7AEFF00230022F0210820FFF7A8FFE0
S315080094C00023962200213D20FFF7A2FF0623012252
S315080094D01F210820FFF79CFF022000F0A2FF0623A9
S315080094E000221F210820FFF793FF01230E22C12126
S315080094F00020FFF78DFF00230122F0210120FFF74E
S3150800950087FF042301228F210120FFF781FF002313
S315080095100122F0210220FFF77BFF04230022CF213E
S315080095200220FFF775FF05230122DF210320FFF73D
S315080095306FFF0023962200213C20FFF769FF0023D6
S315080095400122FE210020FFF763FF4FF47A7000F036
S3150800955068FF00230022FE210020FFF759FF07239A
S3150800956000221F210820FFF753FF00230722F021BE
S315080095700820FFF74DFF0023962200213D20FFF724
S3150800958047FF062301221F210820FFF741FF02207B
S3150800959000F047FF062300221F210820FFF738FFA7
S315080095A001230E22C1210020FFF732FF00230222E9
S315080095B0F0210120FFF72CFF042301228F2101202F
S315080095C0FFF726FF00230122F0210220FFF720FFE4
S315080095D004230122CF210220FFF71AFF05230122C7
S315080095E0DF210320FFF714FF00BF80BD80B586B0DA
S315080095F004AFFF23BB714FF0FF330293012301939E
S31508009600FB1D00930123032200211D4806F0A0FD3F
S31508009610FB7919461B4812F077F8FB7903F0080323
S31508009620002B17D04FF0FF33029301230193BB1D84
S315080096300093012307220021114806F089FDBB7912
S315080096401946114812F060F8BB7903F03F03DBB204
S31508009650BB7110E0FB7903F00403002B03D00B4821
S3150800966012F052F807E0FB7903F00103002B02D051
S31508009670074812F0B7F8BB7918460837BD4680BDCB
S31508009680FC05002088090208A0090208B809020892
S31508009690CC09020880B582B000AF7860786800F01F
S315080096A0C0FE00BF0837BD4680BD80B586B002AF94
S315080096B0F8607A603B600B46FB723B68002B0CD067
S315080096C0FB7A9BB25B0099B23B689BB24FF0FF32C4
S315080096D000927A68F86806F019FAFB7A5B001BB202
S315080096E043F001031BB299B2FB699BB24FF0FF32FC
S315080096F00092BA69F86806F021FB0023184610376D
S31508009700BD4680BD80B586B002AFF8607A603B6022
S315080097100B46FB723B68002B0CD0FB7A9BB25B00B6
S3150800972099B23B689BB24FF0FF3200927A68F868AC
S3150800973006F0ECF9FB69002B0CD0FB7A9BB25B00B8
S3150800974099B2FB699BB24FF0FF320092BA69F8688A
S3150800975006F0DCF900BF18461037BD4680BD80B458
S3150800976000AF00BF1846BD465DF8047B7047000091
S3150800977080B485B000AF78600023FB607B680A4A36
S315080097801A607B68094ADA607B68094A5A607B680E
S31508009790084A9A607B68084A1A61FB6818461437B3
S315080097A0BD465DF8047B7047FC05002095960008C9
S315080097B0AB960008059700085F97000880B5B8B013
S315080097C000AF786039603B68C7F8DC307B68002BEF
S315080097D023D07968134811F097FF134811F094FFC6
S315080097E0D7F8DC0011F090FF104811F08DFF07F153
S315080097F00C0207F1D40107F1D800C82300F036F8A7
S3150800980007F10C0207F1D40107F1D800C82300F0CC
S315080098102DF80346184611F077FF00BFE037BD461E
S3150800982080BD00BFE4090208F0090208040A02081C
S3150800983080B485B000AFF860B9607A600A4AFB6800
S315080098401360094ABB685360074A7B689360BB6824
S31508009850002B01D1FB6801E04FF4807318461437DA
S31508009860BD465DF8047B70473803002090B585B087
S3150800987000AFF860B9607A603B60144B1A68FB6801
S315080098801A60124B5A68BB681A607B68002B17D09F
S315080098903B68002B14D00D4B9B68002B09D00B4B53
S315080098A09C680A4B1868094B59683B687A68A04750
S315080098B004E0074A3968786811F026FF7B6800E0FB
S315080098C0002318461437BD4690BD00BF3803002054
S315080098D0080A020880B59EB000AFF860B9607A60E1
S315080098E03B60FB68013B052B20D801A252F823F008
S315080098F0099900080F990008159900081B9900088E
S315080099002199000827990008134B7B6718E0134B29
S315080099107B6715E0124B7B6712E0124B7B670FE003
S31508009920114B7B670CE0114B7B6709E007F11003CD
S31508009930FA680F49184611F0E7FE07F110037B672E
S315080099407B6F0C4A3968786811F0DEFE7B6818462A
S315080099507837BD4680BD00BF340A0208480A0208A7
S31508009960640A02089C0A0208D40A02080C0B0208B8
S31508009970400B0208540B020880B586B004AF0423D6
S31508009980FB714FF47A73029301230193FB1D009335
S3150800999001232122B8210C4806F0C6FA0A2000F055
S315080099A040FD8423FB714FF47A73029301230193DC
S315080099B0FB1D009301232022B821034806F0B4FAC0
S315080099C000BF0837BD4680BDFC05002080B58AB0BB
S315080099D004AF78600123BB744FF47A7302930123B2
S315080099E0019307F11203009301232122B82151485C
S315080099F006F09AFA4FF47A7302930123019307F15A
S31508009A001303009301232722B9214A4806F0A0FB35
S31508009A104FF47A7302930123019307F10C03009321
S31508009A2001232822B921434806F092FB4FF47A73A2
S31508009A3002930123019307F10C03013300930123D9
S31508009A402922B9213B4806F083FB4FF47A73029327
S31508009A500123019307F10C030233009301232A2201
S31508009A60B921344806F074FBBB7BDB09DBB2012B5A
S31508009A7001D101235AE0BB7B1A047B7B1B021343EB
S31508009A803A7B13437B617B6907EE903AB8EEE77A37
S31508009A90DFED296AC7EE267A7B68C3ED007A07F1FF
S31508009AA00C0304220021184611F0D0FF00237B6125
S31508009AB04FF47A7302930123019307F10C03009381
S31508009AC001232B22B9211B4806F042FB4FF47A7377
S31508009AD002930123019307F10C0301330093012339
S31508009AE02C22B921134806F033FB7B7B1B023A7BF9
S31508009AF013437B617B7BDB09DBB2012B04D17B69DA
S31508009B00DB439BB201337B617B6907EE903AB8EE83
S31508009B10E77ADFED0A6AC7EE267A7B6804339FED9B
S31508009B20087A77EE877AC3ED007A00231846183745
S31508009B30BD4680BDFC050020000080450000F043BE
S31508009B4000002A4280B485B000AF78604FF0B04379
S31508009B50DA6C4FF0B0417B681343CB644FF0B043E7
S31508009B60DA6C7B681340FB60FB6800BF1437BD46A0
S31508009B705DF8047B7047000080B586B000AF3B46B1
S31508009B8000221A605A609A60DA601A615A61294B93
S31508009B90294A1A60274B4FF440325A60254B002257
S31508009BA09A60244B0022DA60224B00221A61214B6C
S31508009BB004225A611F4B00221A761E4B00225A763F
S31508009BC01C4B0122DA611B4B002283F82020194B1B
S31508009BD000229A62174B0022DA62164B002283F89B
S31508009BE03020144B00225A63124B002283F8382087
S31508009BF0104804F0F5F80346002B01D002F028FCC3
S31508009C000E4B3B6006237B600523BB607F23FB600E
S31508009C1004233B6100237B613B461946054804F053
S31508009C20CDFA0346002B01D002F012FC00BF18370C
S31508009C30BD4680BD44030020000004501000C0103B
S31508009C4080B59CB000AF786007F15C0300221A600B
S31508009C505A609A60DA601A6107F10C0350220021F3
S31508009C60184611F0F3FE7B681B68324A93425CD1B2
S31508009C704FF48063FB6018233B614FF400337B612C
S31508009C804FF00073BB614FF00053FB614FF08053F8
S31508009C903B624FF08053BB6407F10C03184609F08A
S31508009CA08CF90346002B01D002F0D2FB4FF400508A
S31508009CB0FFF748FF0420FFF745FF0823FB6503234A
S31508009CC03B6600237B6607F15C0319461A4805F0D4
S31508009CD0A5FC1A4B1A4A1A60184B05225A60174BEC
S31508009CE000229A60154B0022DA60144B80221A6112
S31508009CF0124B4FF480725A61104B4FF480629A618E
S31508009D000E4B2022DA610D4B4FF400521A620B48B3
S31508009D1005F0B0F90346002B01D002F099FB7B68E9
S31508009D20064ADA64054A7B68936200BF7037BD4607
S31508009D3080BD00BF0000045000080048A8030020AA
S31508009D4008000240B0B588B000AF0B4B3C1D1D465D
S31508009D500FCD0FC495E8070003C422800234130C04
S31508009D6023700CF0D9FF3B1D18460CF06AFA00BFA9
S31508009D702037BD46B0BD00BF640B020880B400AFF3
S31508009D80054BDB69044A43F40043D36100BFBD4673
S31508009D905DF8047B704700BF0004005880B483B0A8
S31508009DA000AF7860064BDB6923F0700204497B68D4
S31508009DB01343CB6100BF0C37BD465DF8047B704783
S31508009DC00004005880B487B000AF7860184B1B6851
S31508009DD01B0A03F00F03FB60FB68002B08D1154B29
S31508009DE0DB6923F00F0213497B681343CB6119E043
S31508009DF0FB68063B3B617B683A6913447B617B6978
S31508009E00002B02DA00237B6104E07B690F2B01DD5E
S31508009E100F237B61074BDB6923F00F027B6905493A
S31508009E201343CB6100BF1C37BD465DF8047B704702
S31508009E305875FF1F0004005880B483B000AF7860DF
S31508009E40074BD3F8803023F0070205497B68134394
S31508009E50C1F8803000BF0C37BD465DF8047B7047FB
S31508009E600004005880B483B000AF7860064BD3F87E
S31508009E70902005497B681343C1F8903000BF0C3722
S31508009E80BD465DF8047B70470008005880B483B06F
S31508009E9000AF78604FF0B0430A4AC3F89C204FF0F1
S31508009EA0B043D3F89C3023F47C527B681B024FF0F6
S31508009EB0B0411343C1F89C3000BF0C37BD465DF86E
S31508009EC0047B7047FECAFECA80B483B000AF7860D0
S31508009ED04FF0B0439B6823F400424FF0B0417B68D3
S31508009EE013438B6000BF0C37BD465DF8047B704793
S31508009EF080B400AF4FF0B043D3F890304FF0B04283
S31508009F0043F48033C2F8903000BFBD465DF8047B49
S31508009F10704780B400AF4FF0B043D3F890304FF09D
S31508009F20B04223F48033C2F8903000BFBD465DF8D6
S31508009F30047B704780B400AF4FF0B043D3F8943039
S31508009F4003F08063B3F1806F01D1012300E00023A1
S31508009F501846BD465DF8047B704780B400AF4FF0E5
S31508009F60B043D3F8943003F08053B3F1805F01D146
S31508009F70012300E000231846BD465DF8047B7047C0
S31508009F8080B485B000AF78604FF0B0431A6D4FF0DB
S31508009F90B0417B6813430B654FF0B0431A6D7B687D
S31508009FA01340FB60FB6800BF1437BD465DF8047BB1
S31508009FB07047000080B400AF044B1B68C3F30B0363
S31508009FC01846BD465DF8047B704700BF002004E0D4
S31508009FD080B400AF044B1B681B0C9BB21846BD46E9
S31508009FE05DF8047B704700BF002004E080B483B0AE
S31508009FF000AF786039607B685A683B681B041A436F
S3150800A0007B685A6000BF0C37BD465DF8047B704715
S3150800A01080B483B000AF786039607B685A683B6863
S3150800A0201A437B685A6000BF0C37BD465DF8047B4F
S3150800A030704780B483B000AF786039607B685A692E
S3150800A0403B681B041A437B685A6100BF0C37BD4640
S3150800A0505DF8047B704780B483B000AF78603960E0
S3150800A0607B685A693B681A437B685A6100BF0C379C
S3150800A070BD465DF8047B704780B483B000AF786056
S3150800A08039607B683A689A6000BF0C37BD465DF850
S3150800A090047B704780B483B000AF786039607B6812
S3150800A0A03A689A6100BF0C37BD465DF8047B704775
S3150800A0B080B400AF054B1B69044A23F004031361FF
S3150800A0C000BFBD465DF8047B704700BF00ED00E0A9
S3150800A0D080B483B000AF78607B68FF225A6200BF05
S3150800A0E00C37BD465DF8047B704780B483B000AF7B
S3150800A0F078607B68CA225A627B6853225A6200BF1C
S3150800A1000C37BD465DF8047B704780B483B000AF5A
S3150800A110786039607B689B6823F007023B681A43BE
S3150800A1207B689A6000BF0C37BD465DF8047B7047B4
S3150800A13080B500AF044B4FF400421A6100F029F8CD
S3150800A14000F068F800BF80BD0040005880B500AF39
S3150800A15000F074F800F08CF80349002001F0FCFCCC
S3150800A16000F094F800BF80BDD006002080B500AF8F
S3150800A1700020FFF713FE0420FFF724FEFFF7FEFD7D
S3150800A18000BF80BD80B500AF5020FFF76BFE00BF53
S3150800A19080BD80B500AF00F004F800F019F800BFE4
S3150800A1A080BD80B500AFFFF7C5FE0346002B0DD076
S3150800A1B0FFF7D3FE0346002B08D106F04FFD06F045
S3150800A1C04DFDFFF795FEFFF7A4FE00BF00BF80BD5B
S3150800A1D080B500AF4FF48010FFF7D2FE3F210C4840
S3150800A1E0FFF74AFF3F210A48FFF754FF3F21084877
S3150800A1F0FFF7FCFE3F210648FFF71BFF3F210448F7
S3150800A200FFF706FF3F210248FFF725FF00BF80BD85
S3150800A210000C005880B582B000AF00200CF008FE94
S3150800A22078607B68002B05D07B689B791846FFF71A
S3150800A2302DFE00BF00BF0837BD4680BD80B500AF04
S3150800A240FFF794FFFFF79EFF00F002F800BF80BDFE
S3150800A25080B500AF0548FFF748FF00210348FFF720
S3150800A26054FF0248FFF734FF00BF80BD00280040B6
S3150800A27080B500AF4FF40040FFF726FE10F030F827
S3150800A2800420FFF7D9FD00BF80BD000080B588B067
S3150800A29000AF0CF08BFB114A0021202010F094F936
S3150800A2A00F4B3B600F4B7B603B4619460E480CF044
S3150800A2B03FFA0E4BBB600E4BFB600E4B3B6140F208
S3150800A2C03C537B6107F1080318460CF0B1FC0CF00F
S3150800A2D067FB00BF2037BD4680BD00BF6967010820
S3150800A2E034070320F9A2000811A300084C0903202B
S3150800A2F040080320F801032080B483B000AF03466A
S3150800A300FB7100BF0C37BD465DF8047B7047000043
S3150800A31080B588B000AF78607B685B680B33FB61FB
S3150800A320FB691B889BB2A3F51243072B1FD801A212
S3150800A33052F823F055A3000867A300086FA3000886
S3150800A3406FA300086FA300086FA300086FA3000897
S3150800A3506FA3000807F10C0318460BF09FFF7868F7
S3150800A36000F01BF804E0786800F006F800E000BF8B
S3150800A37000BF2037BD4680BD80B485B000AF786089
S3150800A3807B685B680B33FB60FB680233BB6000BF0E
S3150800A3901437BD465DF8047B704780B58AB000AFB8
S3150800A3A0786007F1080300221A605A609A60DA603A
S3150800A3B000237B6200233B627B685B680B33FB618F
S3150800A3C0FB690233BB61BB691B78002B1DD1FFF704
S3150800A3D0B9FC0F233B727F23BB72FFF7F9FD786246
S3150800A3E07B6A9BB2BB82FFF7E5FD38623B6A9BB28C
S3150800A3F0FB8207F1080318460BF03AFF0CF022FE21
S3150800A400002101200FF07EFF07E0BB691B78012BB6
S3150800A41003D17B6800221A7000BF00BF2837BD46EB
S3150800A42080BD80B584B000AF786003F0A7FAB86045
S3150800A4307B68FB60FB68B3F1FF3F0AD003F0B6FA0E
S3150800A44003461A46FB681344FB6002E0FFF730FE3A
S3150800A45030BF03F093FA0246BB68D31AFA689A42E9
S3150800A460F4D800BF00BF1037BD4680BD80B500AF29
S3150800A4704FF0FF300FF0ACFF00BF80BD80B500AFD6
S3150800A4800FF070FF00BF80BD80B582B000AF786066
S3150800A49039604FF0FF300FF09BFF00BF0837BD460D
S3150800A4A080BD80B582B000AF78600021202010F012
S3150800A4B0ADF800BF0837BD4680BD80B582B000AF95
S3150800A4C07860022010F034F900BF0837BD4680BD19
S3150800A4D080B582B000AF7860022010F049F900BF5D
S3150800A4E00837BD4680BD80B485B000AF78604FF0B0
S3150800A4F0B0439A6C4FF0B0417B6813438B644FF0BE
S3150800A500B0439A6C7B681340FB60FB6800BF143746
S3150800A510BD465DF8047B704780B500AF0420FFF7A1
S3150800A520E2FF0120FFF7DFFF002200210B2004F0E5
S3150800A53042FD0B2004F059FD00BF80BD80B594B0E4
S3150800A54000AF4FF480733B630623BB6100237B6334
S3150800A5500023BB630023FB630023FB6200237B64A9
S3150800A5600023BB6407F1180341F2883219461B48D9
S3150800A57006F0C2FD034687F84F3097F84F30002B98
S3150800A58002D097F84F3024E002233B6002237B6019
S3150800A59000233B610123FB601023BB604FF480035B
S3150800A5A07B610523BB614FF08073FB633A4607F175
S3150800A5B0180141F28833094806F02BFF034687F84D
S3150800A5C04F3097F84F30002B02D097F84F3000E005
S3150800A5D0002318465037BD4680BD00BF8C060020B4
S3150800A5E080B58EB000AF4FF48073BB6105233B6026
S3150800A5F00023FB6100233B624FF080737B620023DC
S3150800A6007B610123BB620023FB6200233B633B465D
S3150800A61041F288321946494806F06EFD034687F826
S3150800A620373097F83730002B02D097F8373081E06B
S3150800A63007F1360341F288321946404806F04CFEC7
S3150800A640034687F8373097F83730002B02D097F84B
S3150800A65037306FE0FFF772FF0346002B02D097F8FA
S3150800A660373067E097F8363043F04003DBB287F8B7
S3150800A670363001233B603B4641F2883219462F4863
S3150800A68006F03AFD034687F8373097F83730002B3F
S3150800A69002D097F837304DE007F1360341F2883299
S3150800A6A01946264806F086FD034687F8373097F898
S3150800A6B03730002B02D097F837303BE000F042F8ED
S3150800A6C0034687F8373097F83730002B02D097F8CB
S3150800A6D037302FE005233B603B4641F28832194666
S3150800A6E0164806F009FD034687F8373097F83730DD
S3150800A6F0002B02D097F837301CE007F1360341F2F9
S3150800A700883219460D4806F0E7FD034687F83730C4
S3150800A71097F83730002B02D097F837300AE097F8C9
S3150800A720363003F04003002B02D1054811F05AF8E1
S3150800A73097F8373018463837BD4680BD8C06002056
S3150800A740940B020880B594B000AF4FF480733B6356
S3150800A7500523BB6100237B630023BB634FF0807333
S3150800A760FB630023FB6200237B640023BB64002396
S3150800A7703B6001237B6000233B610123FB601023C0
S3150800A780BB604FF480037B613A4607F1180141F23A
S3150800A7908833094806F03DFE034687F84F3097F898
S3150800A7A04F30002B02D097F84F3000E000231846B0
S3150800A7B05037BD4680BD00BF8C06002080B592B0DC
S3150800A7C000AFF860B9607A604FF48073BB62EB2320
S3150800A7D03B614FF44063FB6200233B63BB687B61CC
S3150800A7E04FF40053FB614FF040737B6306237B6293
S3150800A7F07B68BB630023FB6300233B64FFF7F0FE23
S3150800A800034687F8473097F84730002B02D11F4890
S3150800A81010F0E8FF07F1100341F2883219461C4888
S3150800A82006F06AFC034687F8473097F84730002B4E
S3150800A83005D0184810F0D6FF97F8473022E041F2C5
S3150800A8408832F968124806F047FD034687F847300C
S3150800A85097F84730002B05D00F4810F0C3FF97F83C
S3150800A86047300FE0FFF76EFF034687F8473097F843
S3150800A8704730002B05D0094810F0B4FF97F8473049
S3150800A88000E0002318464837BD4680BDA00B0208E5
S3150800A8908C060020AC0B0208C00B0208D00B02087D
S3150800A8A080B592B000AFF860B9607A604FF48073F3
S3150800A8B0BB6238233B6100233B63BB687B614FF473
S3150800A8C00053FB614FF44063FB624FF040737B63B8
S3150800A8D000237B627B68BB630023FB6300233B6426
S3150800A8E0FFF72CFE0346002B04D0204810F07AFF11
S3150800A8F0012337E007F1100341F2883219461C4854
S3150800A90006F0FAFB034687F8473097F84730002BDE
S3150800A91005D0184810F066FF97F8473022E041F254
S3150800A9208832F968124806F045FC034687F847302E
S3150800A93097F84730002B05D00F4810F053FF97F8CB
S3150800A94047300FE0FFF7FEFE034687F8473097F8D3
S3150800A9504730002B05D0094810F044FF97F84730D8
S3150800A96000E0002318464837BD4680BDE80B0208BC
S3150800A9708C060020F80B02080C0C02081C0C0208B6
S3150800A98080B590B000AF7860FFF7D8FD0346002B7E
S3150800A99002D0274810F0B8FE4FF480733B6220239C
S3150800A9A0BB604FF480637B624FF400537B617B6826
S3150800A9B0FB600023BB620023FB620023FB610023CC
S3150800A9C07B630023BB63FFF7B9FD0346002B05D065
S3150800A9D0184810F007FF97F83F3024E007F10803FE
S3150800A9E041F288321946144806F086FB034687F872
S3150800A9F03F3097F83F30002B05D0104810F0F2FE94
S3150800AA0097F83F300FE0FFF79DFE034687F83F3083
S3150800AA1097F83F30002B05D0094810F0E3FE97F869
S3150800AA203F3000E0002318464037BD4680BD00BFD2
S3150800AA30300C0208400C02088C060020580C02084C
S3150800AA40700C0208B0B588B004AF78600B46FB708E
S3150800AA50464A7B68136007F10803062244491846EC
S3150800AA60FFF7ACFE3B7A18467B7A1C46BB7A1D4636
S3150800AA70FB7A3A7B797B0291019200932B46224618
S3150800AA8001463C4810F040FEFB78012B2BD17B6831
S3150800AA900133C3F30B03002B14D17B680133364A09
S3150800AAA0934206D90020FFF76BFF304B00221A604D
S3150800AAB008E07B6801331846FFF762FF7B680133BD
S3150800AAC02A4A1360294B9B783B72284B5B787B722A
S3150800AAD0264B1B78BB723B7A19467B7A1A46BB7A99
S3150800AAE0264810F011FEFB78022B1FD17B68C3F3B2
S3150800AAF00B03002B11D17B68214A934207D92148C1
S3150800AB00FFF73EFF194B4FF480121A6005E078688C
S3150800AB10FFF736FF154A7B681360144B9B78FB7268
S3150800AB20124B5B783B73114B1B787B731048FFF70E
S3150800AB3027FF07F1080306220D491846FFF7B0FE5E
S3150800AB403B7A18467B7A1C46BB7A1D46FB7A3A7BCB
S3150800AB50797B0291019200932B46224601460A48C8
S3150800AB6010F0D2FD00BF1037BD46B0BD0804002066
S3150800AB7000F01F00800C0208FEFF0F00A40C02085C
S3150800AB80FEEF1F00FFEF1F00C00C0208B0B58AB029
S3150800AB9004AF0346FB7107F10C0306223449184635
S3150800ABA0FFF70CFE3B7B18467B7B1C46BB7B1D4692
S3150800ABB0FB7B3A7C797C0291019200932B462246D4
S3150800ABC001462C4810F0A0FDFB79012B22D1BA7B57
S3150800ABD0294B1A707A7B284B5A703A7B264B9A7007
S3150800ABE0254B0022DA70244B1B687B617969234860
S3150800ABF010F08AFD7B696FF07F42934206D07B692D
S3150800AC001F4A934202D87B69002B01D100237B613E
S3150800AC107B6929E0FB79022B24D17A7C164B1A70C2
S3150800AC203A7C154B5A70FA7B134B9A70124B0022DA
S3150800AC30DA70114B1B687B617969104810F064FD66
S3150800AC407B696FF07F42934207D07B690D4A934236
S3150800AC5003D87B69B3F5801F02D84FF480137B6154
S3150800AC607B6901E06FF07F4318461837BD46B0BDD3
S3150800AC7000F01F00E80C020808040020080D02086E
S3150800AC80FEFF0F00FEEF1F0080B485B000AF7860AE
S3150800AC904FF0B043DA6C4FF0B0417B681343CB6496
S3150800ACA04FF0B043DA6C7B681340FB60FB6800BF6B
S3150800ACB01437BD465DF8047B7047000080B586B042
S3150800ACC000AF3B1D00221A605A609A60DA601A616A
S3150800ACD00420FFF7D9FF0220FFF7D6FF0120FFF770
S3150800ACE0D3FF0820FFF7D0FF01224FF400614FF091
S3150800ACF0904004F01BFE01224FF46041344804F0F2
S3150800AD0015FE00224FF48051314804F00FFE4FF42F
S3150800AD1082537B604FF44413BB600023FB603B1DEA
S3150800AD2019462C4804F07AFC4FF400637B60112323
S3150800AD30BB600023FB6003233B613B1D19464FF0B4
S3150800AD40904004F06BFC01237B604FF48813BB60D2
S3150800AD500223FB603B1D19461F4804F05FFC4FF4B5
S3150800AD6080437B600123BB600023FB6000233B61BB
S3150800AD703B1D1946164804F051FC4FF430437B60DE
S3150800AD800123BB600023FB6003233B613B1D19467F
S3150800AD900F4804F043FC00220021062004F00BF9BA
S3150800ADA0062004F022F900220021172004F003F9F6
S3150800ADB0172004F01AF900220021282004F0FBF8D5
S3150800ADC0282004F012F900BF1837BD4680BD00BF21
S3150800ADD0000C0048000800480004004880B584B00C
S3150800ADE000AFF860B9607A603B60FB68012B05D15B
S3150800ADF0084A3968786810F087FC05E0FB68064A57
S3150800AE003968786810F080FC7B6818461037BD46AC
S3150800AE1080BD00BF1C0D0208600D020890B587B002
S3150800AE2002AF786039607B6800221A607B6800226E
S3150800AE301A713B689B68002B06D11A4A44210420E4
S3150800AE40FEF7F6FC034629E03B685B68002B06D153
S3150800AE50144A44210320FEF7EBFC03461EE07B68F8
S3150800AE6044221A717B683A681A607B681B689C687A
S3150800AE707B681B6818687B68197907F10802002344
S3150800AE80019307F1080300930023A047F860FB68C5
S3150800AE90002B02D07B6800221A60FB68184614371C
S3150800AEA0BD4690BDD598000880B584B000AF7860DF
S3150800AEB039607B681B68DB68002B06D10E4A442183
S3150800AEC00520FEF7B5FC034612E0786800F016F890
S3150800AED0F860FB68002B01D0FB6809E07B681B68FB
S3150800AEE0DB68232098473968786800F023F803461A
S3150800AEF018461037BD4680BDD598000890B587B06E
S3150800AF0002AF78600023FB737B681B689C687B68CC
S3150800AF101B6818687B68197907F10F0200230193EB
S3150800AF20002300930123A047034618461437BD465D
S3150800AF3090BD000090B589B002AF786039607B6833
S3150800AF401B685C687B681B6818687B68197904232A
S3150800AF50019307F10803009300230022A0477861B4
S3150800AF607B69002B01D07B6943E0FB7A03F0010380
S3150800AF70002B06D0214A44210120FEF759FC03463E
S3150800AF8037E03B7A1B0203F47C537A7A134307EEC5
S3150800AF90903AF8EEE77AC7ED047ABB7A1A02FB7A9A
S3150800AFA003F0FC0313439B1007EE903AF8EEE77A9A
S3150800AFB0C7ED037AD7ED047A9FED117A27EE877AE3
S3150800AFC0DFED106AC7EE267A3B68C3ED017AD7ED46
S3150800AFD0037A9FED0D7A27EE877ADFED0A6AC7EEC8
S3150800AFE0267A9FED0A7A77EEC77A3B68C3ED007A30
S3150800AFF0002318461C37BD4690BD00BFDDAD0008CE
S3150800B0000000C84200FC7F4600002543000020429D
S3150800B01080B584B000AFF860B9607A603B60FB68C1
S3150800B020012B06D13B68084A1946786810F0E2FBFE
S3150800B03005E03968FB68054A786810F0DBFB7B6831
S3150800B04018461037BD4680BD840D0208B00D0208AB
S3150800B05080B487B000AF7860396040F21D137B81F9
S3150800B060FF23FB8200233B611FE03B697A68134498
S3150800B0701B789AB2FB8A5340FB820023FB600EE0E2
S3150800B080FB8A5B00FB82FB8A03F48073002B03D0E8
S3150800B090FA8A7B895340FB82FB680133FB60FB68B5
S3150800B0A0072BEDDD3B6901333B613A693B689A4200
S3150800B0B0DBDBFB8ADBB218461C37BD465DF8047B32
S3150800B0C07047000080B584B000AF7860396004210D
S3150800B0D07868FFF7BDFF03461A467B6804331B787A
S3150800B0E09A4206D0244A00210120FEF7A1FB034616
S3150800B0F03DE07B681B781B0203F47C537A680132B7
S3150800B1001278134307EE903AF8EEE77AC7ED037A1A
S3150800B1107B6802331B781B0203F47C537A6803327C
S3150800B1201278134307EE903AF8EEE77AC7ED027AFB
S3150800B130D7ED037A9FED117A27EE877ADFED106A4D
S3150800B140C7EE267A3B68C3ED017AD7ED027A9FED02
S3150800B1500D7A27EE877ADFED0A6AC7EE267A9FED23
S3150800B1600A7A77EEC77A3B68C3ED007A0023184659
S3150800B1701037BD4680BD00BF11B000080000C842A8
S3150800B18000FC7F46000025430000204280B584B0BD
S3150800B19000AF786039607B681B68DB68002B08D1D4
S3150800B1A07B681B790E4A19460520FEF741FB0346C4
S3150800B1B012E0786800F016F8F860FB68002B01D0FA
S3150800B1C0FB6809E07B681B68DB68022098473968DA
S3150800B1D0786800F033F8034618461037BD4680BD38
S3150800B1E0D598000890B587B002AF7860F523FB7351
S3150800B1F07B681B689B68002B08D17B681B790E4A05
S3150800B20019460420FEF714FB034610E07B681B680A
S3150800B2109C687B681B6818687B68197907F10F02B8
S3150800B22000230193002300930123A04703461846F1
S3150800B2301437BD4690BD00BFD598000890B589B0B3
S3150800B24002AF786039607B681B685C687B681B683E
S3150800B25018687B68197907F10C020523019307F131
S3150800B2600C0300930023A04778617B69002B01D06B
S3150800B2707B6906E007F10C0339681846FFF722FFD9
S3150800B280034618461C37BD4690BD80B584B000AF4E
S3150800B2907860396039687868FFF7C0FDF860FB6840
S3150800B2A0002B01D1FB6803E07B6800221A71FB685A
S3150800B2B018461037BD4680BD80B584B000AF7860AB
S3150800B2C039600023FB607B681B79442B07D0542B1D
S3150800B2D00BD139687868FFF759FFF86007E03968D5
S3150800B2E07868FFF7E1FDF86001E02A23FB60FB6858
S3150800B2F018461037BD4680BD80B483B000AF78606D
S3150800B3007B681B79442B03D0542B03D1054B02E0F1
S3150800B310054B00E0054B18460C37BD465DF8047B27
S3150800B320704700BFD00D0208D80D0208E00D0208CC
S3150800B33080B483B000AF7860064BD3F88020054907
S3150800B3407B681343C1F8803000BF0C37BD465DF8F3
S3150800B350047B70470008005880B483B000AF78605B
S3150800B360054B1A6804497B6813430B6000BF0C370A
S3150800B370BD465DF8047B70470008005880B483B06A
S3150800B38000AF0D4B9B6A9BB27B600B4B9B6A9BB2D3
S3150800B3903B6005E03B687B60074B9B6A9BB23B6062
S3150800B3A07A683B689A42F5D13B6818460C37BD4621
S3150800B3B05DF8047B704700BF0028004080B485B064
S3150800B3C000AF03460A46FB711346BB71BA791D499D
S3150800B3D013465B001344DB000B4415331B78FB73E1
S3150800B3E0FB7B142B09D0FA7B164913465B001344E2
S3150800B3F0DB000B441433FA791A70FA7911491346AB
S3150800B4005B001344DB000B441533FA7B1A70FA7998
S3150800B4100C4913465B001344DB000B441433BA791A
S3150800B4201A70BA79074913465B001344DB000B44CC
S3150800B4301533FA791A7000BF1437BD465DF8047BD8
S3150800B440704700BF0C04002080B485B000AF0346E7
S3150800B4500A46FB711346BB71294B1B78DBB2BA79D6
S3150800B4609A4232D0BA79274913465B001344DB0067
S3150800B4700B4414331B78FB73FA7B224913465B0093
S3150800B4801344DB000B441533FA791A70FA791D490F
S3150800B49013465B001344DB000B441533BA791A7064
S3150800B4A0FA79184913465B001344DB000B4414333E
S3150800B4B0FA7B1A70BA79134913465B001344DB000A
S3150800B4C00B441433FA791A7014E0FA790D491346C5
S3150800B4D05B001344DB000B441533BA791A70BA794A
S3150800B4E0084913465B001344DB000B441433FA790E
S3150800B4F01A7000BF1437BD465DF8047B704700BF5D
S3150800B500EC0500200C04002080B584B000AF03468B
S3150800B510FB714E4B1B78DBB2142B18D14B4B1B78A7
S3150800B520DAB24B4B1A70494AFB791370FA794949D2
S3150800B53013465B001344DB000B44153314221A70C0
S3150800B540454B4FF0FF321A600023FB8178E000F08C
S3150800B55009F90346FB81FA793E4913465B00134411
S3150800B560DB000B4408331968FB89FA791944394812
S3150800B57013465B001344DB00034408331960FA7969
S3150800B580344913465B001344DB000B4408331B683D
S3150800B590BB602E4B1B78DBB219462E4A0B465B0066
S3150800B5A00B44DB00134408331B68BA689A4237D346
S3150800B5B0264B1B787B737A7B264913465B0013441C
S3150800B5C0DB000B4415331B783B7313E07A7B214968
S3150800B5D013465B001344DB000B4415331B787B735F
S3150800B5E07A7B1C4913465B001344DB000B44153376
S3150800B5F01B783B733B7B142B0BD03A7B15491346C0
S3150800B6005B001344DB000B4408331B68BA689A4294
S3150800B610DCD27A7BFB7911461846FFF7CFFE0FE09E
S3150800B6200A4B1B78DAB2FB7911461846FFF70CFF6E
S3150800B630064B1B78DAB2064B1A70044AFB7913706C
S3150800B640FB8918461037BD4680BD00BFEC050020B3
S3150800B650ED0500200C040020F005002080B485B01C
S3150800B66000AF03460A46FB711346BB71394B1B787C
S3150800B670DBB2FA799A4211D1364B1B78DAB2364BDD
S3150800B6801A70FA79354913465B001344DB000B44FC
S3150800B69015331B78DAB22F4B1A703EE0FA792F4928
S3150800B6A013465B001344DB000B4414331B78FB730F
S3150800B6B0FA792A4913465B001344DB000B44153319
S3150800B6C01B78BB73F979FA7B24480B465B000B445D
S3150800B6D0DB00034415331B78D8B2204913465B00B8
S3150800B6E01344DB000B44153302461A70BB7B142B3C
S3150800B6F013D0F979BA7B19480B465B000B44DB007B
S3150800B700034414331B78D8B2144913465B00134418
S3150800B710DB000B44143302461A70FA790F491346B4
S3150800B7205B001344DB000B440C3301221A70094BEF
S3150800B7301B78DBB2142B07D1BB79002B04D1084B3D
S3150800B7404FF0FF321A6000BF00BF1437BD465DF8E0
S3150800B750047B7047EC050020ED0500200C04002052
S3150800B760F005002080B582B000AF1A4B1B68B3F114
S3150800B770FF3F26D0FFF702FE7860164B1B687A68F3
S3150800B7809A4205D8134B1A687B68D31A7B600AE07D
S3150800B790114B1B881A467B68D31A3B600D4B1B68F6
S3150800B7A03A6813447B600D4B1B781A467B6802FB8C
S3150800B7B003F37B600A4B1B781A467B68D3407B6091
S3150800B7C001E000237B607B689BB218460837BD46BC
S3150800B7D080BD00BFF0050020F8050020F605002012
S3150800B7E0F505002080B582B000AF0346FB80FB88D4
S3150800B7F0002B08D1FFF7C2FD0346214A1360032038
S3150800B80003F01BFC39E0FB88012B03D81D4B1B7882
S3150800B810012B02D0FB88013BFB8000BF1A4B1B683B
S3150800B820DB6803F00403002BF8D0174B1B68DB68B2
S3150800B830DAB2154B1B6862F49062DA60134B4FF468
S3150800B8400022DA60032003F006FC114B5B691B0C2F
S3150800B8501B04FA880E4913434B61FFF78FFD034615
S3150800B860074A1360084B1B689A68074B1B6842F423
S3150800B87080629A60AFF3008000BF0837BD4680BD7E
S3150800B880F0050020F5050020D00600200008005825
S3150800B8900028004080B584B000AF454B9B6803F490
S3150800B8A08063B3F5806F07D100BF424B1B68DB6826
S3150800B8B003F00403002BF8D13E4B1B689A683D4BF6
S3150800B8C01B6822F480629A603B4B1B78FB73FA7BF9
S3150800B8D03A4913465B001344DB000B4408331B68E4
S3150800B8E0BB60FFF73FFF0346FB80FB88BA689A42B6
S3150800B8F005D20023BB81324B01221A704DE0FB882A
S3150800B900304A128892B213441A46BB68934206D943
S3150800B9102C4B1B88BB812A4B00221A703DE0BB6862
S3150800B9209AB2FB88D31ABB81254B01221A7034E0E0
S3150800B930FA7B224913465B001344DB000B440833A9
S3150800B9401A68FB889A420AD2FA7B1C4913465B009E
S3150800B9501344DB000B44083300221A6013E0FA7B19
S3150800B960164913465B001344DB000B440833196879
S3150800B970FB88FA7BC91A114813465B001344DB009F
S3150800B980034408331960FA7B0C4913465B001344D9
S3150800B990DB000B4415331B78FB73FB7B142BC7D1D9
S3150800B9A0BB891846FFF71EFF00BF1037BD4680BD8E
S3150800B9B000280040D0060020EC0500200C040020DA
S3150800B9C0F4050020FA05002080B58AB000AFEFF331
S3150800B9D010837B617B697B6272B600BF594B1B681B
S3150800B9E0CA225A62574B1B6853225A62554B1B6828
S3150800B9F09A68544B1B6822F480629A60524B1B78F3
S3150800BA0087F8233097F82320504913465B001344E0
S3150800BA10DB000B440C331B78DBB2022B6ED197F894
S3150800BA2023204A4913465B001344DB000B441B687A
S3150800BA30FB6197F82320454913465B001344DB0056
S3150800BA400B4410331B68BB61414B1B78DBB2002BE0
S3150800BA504CD097F823203D4913465B001344DB007E
S3150800BA600B440D331B78DBB2012B24D197F8233016
S3150800BA7001211846FFF7F2FD7B6A3B613B6983F3B8
S3150800BA80108800BF97F82320304913465B001344FB
S3150800BA90DB000B4404331A6897F82330114618461E
S3150800BAA000F032FA274B1B68CA225A62254B1B68DC
S3150800BAB053225A6212E07B6AFB60FB6883F31088A4
S3150800BAC000BF97F82330184600F09AF91D4B1B68FB
S3150800BAD0CA225A621B4B1B6853225A6297F82330B4
S3150800BAE0FA691946B86900F095FA22E0FFF7D2FE1E
S3150800BAF07B6ABB60BB6883F310881AE000BF114BF2
S3150800BB001B68DB6803F00403002BF8D00D4B1B6899
S3150800BB10DB68DAB20B4B1B6862F49062DA600D4B95
S3150800BB204FF40022DA607B6A7B607B6883F31088B7
S3150800BB3000BF044B1B68FF225A6200BF2837BD4668
S3150800BB4080BD00BFD0060020EC0500200C040020B4
S3150800BB50F40500200008005880B588B000AF0346F9
S3150800BB603960FB715E4B1B68CA225A625C4B1B68C4
S3150800BB7053225A625B4B9B685A4A43F020039360F0
S3150800BB80584B9B68DBB203F00703DBB2C3F104032F
S3150800BB90DAB2554B1A70534B1B6903F4FE034FF484
S3150800BBA0FE023A613A6992FAA2F2FA60FA687A6192
S3150800BBB07A69002A01D1202203E07A69B2FA82F270
S3150800BBC0D2B2D340DBB20133DAB2484B1A70454BD6
S3150800BBD01B699BB2C3F30E039BB201339AB2444B63
S3150800BBE01A80434B1B88013B404A127802FB03F339
S3150800BBF0A3F5A0733C4A1278D340BB61BB694FF6E4
S3150800BC00FE72934204D93B4B4FF6FF721A8003E04B
S3150800BC10BB699AB2374B1A804FF40020FFF79CFB9A
S3150800BC204FF40020FFF784FBFB79002B3DD1324B04
S3150800BC3001221A70314B4FF0FF321A600023FB774E
S3150800BC400CE0FA7F2E4913465B001344DB000B44D5
S3150800BC500C3300221A70FB7F0133FB77FB7F132B13
S3150800BC60EFD9284B14221A701D4B1B689A681C4B77
S3150800BC701B6822F480629A60194B1B68DB68DAB28B
S3150800BC80174B1B6862F49062DA601F4B4FF4002270
S3150800BC90DA60032003F0DFF9114B1B689A68104B32
S3150800BCA01B6842F480429A6009E00D4B1B68DB680A
S3150800BCB003F48063002B02D0032003F0BEF9084B7F
S3150800BCC01B68FF225A6200220321032003F073F93E
S3150800BCD0032003F08AF900BF2037BD4680BD00BFA8
S3150800BCE0D006002000280040F5050020F6050020B3
S3150800BCF0F8050020FA050020F4050020F0050020CC
S3150800BD000C040020EC0500200008005880B48BB015
S3150800BD1000AFF860B9603B601346FB71002387F8F3
S3150800BD202630EFF31083FB61FB693B6272B600BFF6
S3150800BD3004E097F82630013387F8263097F826303E
S3150800BD40132B0CD897F826202C4913465B0013446E
S3150800BD50DB000B440C331B78DBB2002BE9D197F8D8
S3150800BD602630142B38D097F82620244913465B0032
S3150800BD701344DB000B440C3301221A703B6ABB6187
S3150800BD80BB6983F3108800BF97F826201B49134622
S3150800BD905B001344DB000B441033FA681A6097F80B
S3150800BDA02620164913465B001344DB000B440D336B
S3150800BDB0FA791A7097F82620104913465B0013443F
S3150800BDC0DB000B443A681A60BB6897F826201A709D
S3150800BDD0002387F8273008E03B6A7B617B6983F399
S3150800BDE0108800BF012387F8273097F827301846B0
S3150800BDF02C37BD465DF8047B704700BF0C04002055
S3150800BE0080B586B000AF0346FB71EFF31083FB6085
S3150800BE10FB687B6172B600BF032003F0F4F8344B6D
S3150800BE201B68CA225A62324B1B6853225A62FA7935
S3150800BE30304913465B001344DB000B440C331B7874
S3150800BE40DBB2022B42D1FB7900211846FFF706FC2C
S3150800BE50294B1B78FB74FB7C142B2FD1274B9B6833
S3150800BE6003F48063B3F5806F07D100BF204B1B68CE
S3150800BE70DB6803F00403002BF8D11D4B1B689A6896
S3150800BE801B4B1B6822F480629A6000BF184B1B6824
S3150800BE90DB6803F00403002BF8D0154B1B68DB683E
S3150800BEA0DAB2134B1B6862F49062DA60144B4FF4F3
S3150800BEB00022DA60032003F0CEF807E0114B1B7866
S3150800BEC0DBB2FA7C9A4201D0FFF7E4FC084B1B6808
S3150800BED0FF225A62032003F088F87B69BB60BB68BF
S3150800BEE083F3108800BF00BF1837BD4680BD00BF6A
S3150800BEF0D00600200C040020EC0500200028004095
S3150800BF0000080058ED05002080B586B000AF03464E
S3150800BF103960FB71FA793B4913465B001344DB0031
S3150800BF200B440C331B78DBB2022B03D1FB79184682
S3150800BF30FFF766FFEFF31083FB60FB687B6172B661
S3150800BF4000BF032003F05FF82F4B1B68CA225A6212
S3150800BF502D4B1B6853225A62FA792A4913465B000D
S3150800BF601344DB000B440C3302221A70FA79254974
S3150800BF7013465B001344DB000B4408333A681A6027
S3150800BF80FA79204913465B001344DB000B4404335B
S3150800BF903A681A60FB791846FFF7B6FA03467B82B9
S3150800BFA01A4B1B787B741A4B1B78DBB27A7C9A4245
S3150800BFB002D0FFF76FFC13E0FA79124913465B00CB
S3150800BFC01344DB000B44083319687B8AFA79C91ACB
S3150800BFD00C4813465B001344DB000344083319601E
S3150800BFE0094B1B68FF225A62032002F0FEFF7B6999
S3150800BFF0BB60BB6883F3108800BF00BF1837BD4617
S3150800C00080BD00BF0C040020D0060020EC050020EF
S3150800C010ED05002080B584B000AFF8600B467A6065
S3150800C020FB727B68984700BF1037BD4680BD80B459
S3150800C03085B000AF78604FF0B043DA6C4FF0B0418E
S3150800C0407B681343CB644FF0B043DA6C7B681340CC
S3150800C050FB60FB6800BF1437BD465DF8047B70477C
S3150800C06080B485B000AF78604FF0B0439A6D4FF05A
S3150800C070B0417B6813438B654FF0B0439A6D7B687C
S3150800C0801340FB60FB6800BF1437BD465DF8047BB0
S3150800C0907047000080B500AF1B4B1C4A1A601A4B4C
S3150800C0A01B4A5A60184B00229A60174B0122DA6025
S3150800C0B0154B00221A61144B00225A61124B0022BA
S3150800C0C09A61114B0022DA610F4B00221A620E4860
S3150800C0D003F080FC0346002B01D000F0B9F90021DB
S3150800C0E0094804F09DFC0346002B01D000F0B0F986
S3150800C0F00021054804F0DFFC0346002B01D000F0C0
S3150800C100A7F900BF80BD00BFFC050020005C004009
S3150800C110BB7C700080B59CB000AF786007F15C030B
S3150800C12000221A605A609A60DA601A6107F10C03F5
S3150800C1305022002118460FF089FC7B681B68174AB5
S3150800C140934226D10823FB604FF440133B6307F163
S3150800C1500C03184606F031FF0346002B01D000F009
S3150800C16077F90220FFF763FF4FF4C043FB651223FC
S3150800C1703B6600237B660023BB660423FB6607F148
S3150800C1805C031946064803F049FA4FF40000FFF726
S3150800C19067FF00BF7037BD4680BD00BF005C00402A
S3150800C1A00004004880B485B000AF78604FF0B04313
S3150800C1B01A6D4FF0B0417B6813430B654FF0B043DF
S3150800C1C01A6D7B681340FB60FB6800BF1437BD46D9
S3150800C1D05DF8047B7047000080B500AF064B074A40
S3150800C1E01A60054804F0B4FC0346002B01D000F0A1
S3150800C1F02FF900BF80BD00BF50060020000C005874
S3150800C20080B582B000AF78607B681B680D4A9342A0
S3150800C21013D14FF48010FFF7C5FF002200212C2010
S3150800C22002F0C9FE2C2002F0E0FE002200212D209B
S3150800C23002F0C1FE2D2002F0D8FE00BF0837BD4629
S3150800C24080BD00BF000C005880B483B000AF786092
S3150800C2504FF0B043D3F8903023F018024FF0B041B6
S3150800C2607B681343C1F8903000BF0C37BD465DF8B4
S3150800C270047B704780B500AF01F012FBFDF758FF4D
S3150800C28000F022F800F094F8FFF7A6FFFEF744F94D
S3150800C29000F0D0F9FFF7FEFE00F012F9FDF76CFC8E
S3150800C2A000F034FE00F094F9FDF7F6F8FEF706FD07
S3150800C2B001224FF400614FF0904003F037FBFDF781
S3150800C2C045FFFEF7D3F8FCE780B59AB000AF07F153
S3150800C2D020034822002118460FF0B8FB3B1D002218
S3150800C2E01A605A609A60DA601A615A619A614FF068
S3150800C2F0B043DB684FF0B04223F07003D3604FF0D1
S3150800C300B043DB6823F003034FF0B04243F0010368
S3150800C310D36004F0A3FC1020FFF796FF234B1B689D
S3150800C32023F4C063214A43F4007313601F4B1B6850
S3150800C33003F4C0633B603B6827233B624FF48033BA
S3150800C3407B620123BB624FF48073FB620123FB63AC
S3150800C35040233B6300233B6460237B640023FB6428
S3150800C36007F12003184605F077FE0346002B01D097
S3150800C37000F06EF86F237B600223BB600023FB602E
S3150800C38000233B6100237B610023BB610023FB6123
S3150800C3903B1D0121184606F0D3F90346002B01D0B0
S3150800C3A000F056F800BF6837BD4680BD0004005847
S3150800C3B080B594B000AF3B465022002118460FF0D6
S3150800C3C045FB4FF440533B604FF480437B640223A4
S3150800C3D0BB641023FB643B46184606F0EEFD034695
S3150800C3E0002B01D000F034F800BF5037BD4680BDA1
S3150800C3F080B582B000AF7860391D4FF6FF73012211
S3150800C400034807F001FE7B6818460837BD4680BD1D
S3150800C410F806002080B582B000AF0023FB710B4BF5
S3150800C4201B6808221A62F91D4FF6FF730122074896
S3150800C43007F078FEF91D4FF6FF730122034807F04F
S3150800C440E3FDFB7918460837BD4680BDF80600208F
S3150800C45080B400AF72B600BFFEE780B485B000AF07
S3150800C46078604FF0B043DA6C4FF0B0417B68134305
S3150800C470CB644FF0B043DA6C7B681340FB60FB6813
S3150800C48000BF1437BD465DF8047B704780B485B09D
S3150800C49000AF78604FF0B0431A6D4FF0B0417B683B
S3150800C4A013430B654FF0B0431A6D7B681340FB606E
S3150800C4B0FB6800BF1437BD465DF8047B7047000073
S3150800C4C080B500AF0F4B104A1A600E4B02225A6015
S3150800C4D00C4B04229A600B4B0022DA60094B14229B
S3150800C4E01A61084B00225A61064B00229A610548D8
S3150800C4F004F0D2FB0346002B01D0FFF7A9FF00BFCB
S3150800C50080BD00BF8C060020001000A080B588B052
